{
  "_format": "hh-sol-artifact-1",
  "contractName": "Governance",
  "sourceName": "contracts/Governance.sol",
  "abi": [
    {
      "inputs": [],
      "stateMutability": "nonpayable",
      "type": "constructor"
    },
    {
      "anonymous": false,
      "inputs": [
        {
          "indexed": true,
          "internalType": "address",
          "name": "previousOwner",
          "type": "address"
        },
        {
          "indexed": true,
          "internalType": "address",
          "name": "newOwner",
          "type": "address"
        }
      ],
      "name": "OwnershipTransferred",
      "type": "event"
    },
    {
      "inputs": [
        {
          "internalType": "uint256",
          "name": "_policyID",
          "type": "uint256"
        },
        {
          "internalType": "string",
          "name": "_Proof",
          "type": "string"
        },
        {
          "internalType": "uint256",
          "name": "_claimAmount",
          "type": "uint256"
        }
      ],
      "name": "ApplyClaim",
      "outputs": [],
      "stateMutability": "nonpayable",
      "type": "function"
    },
    {
      "inputs": [
        {
          "internalType": "bool",
          "name": "Voting_side",
          "type": "bool"
        },
        {
          "internalType": "uint256",
          "name": "_claimID",
          "type": "uint256"
        }
      ],
      "name": "Vote",
      "outputs": [],
      "stateMutability": "nonpayable",
      "type": "function"
    },
    {
      "inputs": [
        {
          "internalType": "address",
          "name": "_newHolder",
          "type": "address"
        }
      ],
      "name": "addGovHolder",
      "outputs": [],
      "stateMutability": "nonpayable",
      "type": "function"
    },
    {
      "inputs": [
        {
          "internalType": "uint256",
          "name": "_claimID",
          "type": "uint256"
        }
      ],
      "name": "checkDecision",
      "outputs": [
        {
          "internalType": "bool",
          "name": "decision",
          "type": "bool"
        }
      ],
      "stateMutability": "view",
      "type": "function"
    },
    {
      "inputs": [
        {
          "internalType": "address",
          "name": "_newHolder",
          "type": "address"
        }
      ],
      "name": "checkIfTokenHolder",
      "outputs": [
        {
          "internalType": "bool",
          "name": "",
          "type": "bool"
        }
      ],
      "stateMutability": "view",
      "type": "function"
    },
    {
      "inputs": [
        {
          "internalType": "uint256",
          "name": "",
          "type": "uint256"
        }
      ],
      "name": "claims",
      "outputs": [
        {
          "internalType": "address",
          "name": "Owner",
          "type": "address"
        },
        {
          "internalType": "uint256",
          "name": "Policy_ID",
          "type": "uint256"
        },
        {
          "internalType": "string",
          "name": "Proof",
          "type": "string"
        },
        {
          "internalType": "uint256",
          "name": "claimAmount",
          "type": "uint256"
        },
        {
          "internalType": "uint256",
          "name": "No_of_Votes_for",
          "type": "uint256"
        },
        {
          "internalType": "uint256",
          "name": "No_of_Votes_against",
          "type": "uint256"
        },
        {
          "internalType": "uint256",
          "name": "Total_Votes",
          "type": "uint256"
        },
        {
          "internalType": "bool",
          "name": "claimSuccessful",
          "type": "bool"
        }
      ],
      "stateMutability": "view",
      "type": "function"
    },
    {
      "inputs": [],
      "name": "getTokenHolderCount",
      "outputs": [
        {
          "internalType": "uint256",
          "name": "",
          "type": "uint256"
        }
      ],
      "stateMutability": "view",
      "type": "function"
    },
    {
      "inputs": [
        {
          "internalType": "uint256",
          "name": "",
          "type": "uint256"
        },
        {
          "internalType": "address",
          "name": "",
          "type": "address"
        }
      ],
      "name": "hasVoted",
      "outputs": [
        {
          "internalType": "bool",
          "name": "",
          "type": "bool"
        }
      ],
      "stateMutability": "view",
      "type": "function"
    },
    {
      "inputs": [
        {
          "internalType": "address",
          "name": "",
          "type": "address"
        }
      ],
      "name": "isTokenHolder",
      "outputs": [
        {
          "internalType": "bool",
          "name": "",
          "type": "bool"
        }
      ],
      "stateMutability": "view",
      "type": "function"
    },
    {
      "inputs": [],
      "name": "minPercVotes",
      "outputs": [
        {
          "internalType": "uint256",
          "name": "",
          "type": "uint256"
        }
      ],
      "stateMutability": "view",
      "type": "function"
    },
    {
      "inputs": [],
      "name": "owner",
      "outputs": [
        {
          "internalType": "address",
          "name": "",
          "type": "address"
        }
      ],
      "stateMutability": "view",
      "type": "function"
    },
    {
      "inputs": [
        {
          "internalType": "address",
          "name": "_newHolder",
          "type": "address"
        }
      ],
      "name": "removeGovHolder",
      "outputs": [],
      "stateMutability": "nonpayable",
      "type": "function"
    },
    {
      "inputs": [],
      "name": "renounceOwnership",
      "outputs": [],
      "stateMutability": "nonpayable",
      "type": "function"
    },
    {
      "inputs": [],
      "name": "safeZen",
      "outputs": [
        {
          "internalType": "contract SafeZen",
          "name": "",
          "type": "address"
        }
      ],
      "stateMutability": "view",
      "type": "function"
    },
    {
      "inputs": [
        {
          "internalType": "address",
          "name": "_safeZenCA",
          "type": "address"
        }
      ],
      "name": "setSafeZenCA",
      "outputs": [],
      "stateMutability": "nonpayable",
      "type": "function"
    },
    {
      "inputs": [],
      "name": "tokenHolderCount",
      "outputs": [
        {
          "internalType": "uint256",
          "name": "",
          "type": "uint256"
        }
      ],
      "stateMutability": "view",
      "type": "function"
    },
    {
      "inputs": [
        {
          "internalType": "address",
          "name": "newOwner",
          "type": "address"
        }
      ],
      "name": "transferOwnership",
      "outputs": [],
      "stateMutability": "nonpayable",
      "type": "function"
    }
  ],
  "bytecode": "0x6080604052603260025534801561001557600080fd5b5061001f33610024565b610074565b600080546001600160a01b038381166001600160a01b0319831681178455604051919092169283917f8be0079c531659141344cd1fd0a4f28419497f9722a3daafe3b4186f6b6457e09190a35050565b610f6e806100836000396000f3fe608060405234801561001057600080fd5b506004361061010b5760003560e01c806399df6f5d116100a2578063bb6783d311610071578063bb6783d314610246578063be208d4514610259578063d13e58461461026c578063f2fde38b14610275578063f4ab8af91461028857600080fd5b806399df6f5d146101e6578063a888c2cd146101f9578063af0c776c14610220578063b9f4a4d41461023357600080fd5b8063715018a6116100de578063715018a61461019e5780638b237732146101a65780638da5cb5b146101b857806390d10d91146101dd57600080fd5b806316eb259b14610110578063384a30ea14610125578063438596321461014d57806365731fe91461017b575b600080fd5b61012361011e366004610bef565b61029b565b005b610138610133366004610cc8565b610430565b60405190151581526020015b60405180910390f35b61013861015b366004610cec565b600460209081526000928352604080842090915290825290205460ff1681565b610138610189366004610cc8565b60066020526000908152604090205460ff1681565b61012361047a565b6003545b604051908152602001610144565b6000546001600160a01b03165b6040516001600160a01b039091168152602001610144565b6101aa60025481565b6101236101f4366004610cc8565b6104b0565b61020c610207366004610d1c565b610575565b604051610144989796959493929190610d35565b6001546101c5906001600160a01b031681565b610123610241366004610cc8565b61064c565b610123610254366004610cc8565b610708565b610123610267366004610dd9565b610754565b6101aa60035481565b610123610283366004610cc8565b61099c565b610138610296366004610d1c565b610a37565b600154604051637454b5a360e11b8152600481018590526000916001600160a01b03169063e8a96b4690602401602060405180830381865afa1580156102e5573d6000803e3d6000fd5b505050506040513d601f19601f820116820180604052508101906103099190610e0a565b9050336001600160a01b0382161461035c5760405162461bcd60e51b81526020600482015260116024820152702727aa102827a624a1ac902427a62222a960791b60448201526064015b60405180910390fd5b604080516101008101825233815260208082018781528284018781526060840187905260006080850181905260a0850181905260c0850181905260e085018190528981526005845294909420835181546001600160a01b0319166001600160a01b0390911617815590516001820155925180519293849390926103e6926002850192910190610b40565b50606082015160038201556080820151600482015560a0820151600582015560c0820151600682015560e0909101516007909101805460ff19169115159190911790555050505050565b600080546001600160a01b0316331461045b5760405162461bcd60e51b815260040161035390610e27565b506001600160a01b031660009081526006602052604090205460ff1690565b6000546001600160a01b031633146104a45760405162461bcd60e51b815260040161035390610e27565b6104ae6000610af0565b565b6000546001600160a01b031633146104da5760405162461bcd60e51b815260040161035390610e27565b6104e381610430565b1561053c5760405162461bcd60e51b8152602060048201526024808201527f4163636f756e7420616c72656164792068617320676f7665726e616e6365207460448201526337b5b2b760e11b6064820152608401610353565b6001600160a01b0381166000908152600660205260408120805460ff19166001179055600380549161056d83610e72565b919050555050565b6005602052600090815260409020805460018201546002830180546001600160a01b039093169391926105a790610e8d565b80601f01602080910402602001604051908101604052809291908181526020018280546105d390610e8d565b80156106205780601f106105f557610100808354040283529160200191610620565b820191906000526020600020905b81548152906001019060200180831161060357829003601f168201915b505050600384015460048501546005860154600687015460079097015495969295919450925060ff1688565b6000546001600160a01b031633146106765760405162461bcd60e51b815260040161035390610e27565b61067f81610430565b6106da5760405162461bcd60e51b815260206004820152602660248201527f4163636f756e7420646f6573206e6f74206861766520676f7665726e616e6365604482015265103a37b5b2b760d11b6064820152608401610353565b6001600160a01b0381166000908152600660205260408120805460ff19169055600380549161056d83610ec8565b6000546001600160a01b031633146107325760405162461bcd60e51b815260040161035390610e27565b600180546001600160a01b0319166001600160a01b0392909216919091179055565b3360009081526006602052604090205460ff166107a65760405162461bcd60e51b815260206004820152601060248201526f2727aa102a27a5a2a7102427a62222a960811b6044820152606401610353565b6000818152600560209081526040808320600483528184203385529092529091205460ff16156108095760405162461bcd60e51b815260206004820152600e60248201526d1554d15488121054c81593d5115160921b6044820152606401610353565b600781015460ff161561085e5760405162461bcd60e51b815260206004820152601960248201527f434c41494d20495320414c524541445920415050524f564544000000000000006044820152606401610353565b600183151514156108a057600181600601600082825461087e9190610edf565b92505081905550600181600401600082825461089a9190610edf565b90915550505b826108dc5760018160060160008282546108ba9190610edf565b9250508190555060018160050160008282546108d69190610edf565b90915550505b60008281526004602090815260408083203384529091529020805460ff1916600117905561090982610a37565b1561099757600781015460ff166109975760015481546003830154604051633001e5df60e01b81526001600160a01b0392831660048201526024810191909152911690633001e5df90604401600060405180830381600087803b15801561096f57600080fd5b505af1158015610983573d6000803e3d6000fd5b50505060078201805460ff19166001179055505b505050565b6000546001600160a01b031633146109c65760405162461bcd60e51b815260040161035390610e27565b6001600160a01b038116610a2b5760405162461bcd60e51b815260206004820152602660248201527f4f776e61626c653a206e6577206f776e657220697320746865207a65726f206160448201526564647265737360d01b6064820152608401610353565b610a3481610af0565b50565b6000818152600560205260408120600354610a5490600290610ef7565b81600601541015610a9e5760405162461bcd60e51b81526020600482015260146024820152731393d508115393d551d208121054c81593d5115160621b6044820152606401610353565b60006064600254600354610ab29190610f19565b610abc9190610ef7565b905080826004015410610ad3575060019392505050565b8082600501541115610ae9575060009392505050565b5050919050565b600080546001600160a01b038381166001600160a01b0319831681178455604051919092169283917f8be0079c531659141344cd1fd0a4f28419497f9722a3daafe3b4186f6b6457e09190a35050565b828054610b4c90610e8d565b90600052602060002090601f016020900481019282610b6e5760008555610bb4565b82601f10610b8757805160ff1916838001178555610bb4565b82800160010185558215610bb4579182015b82811115610bb4578251825591602001919060010190610b99565b50610bc0929150610bc4565b5090565b5b80821115610bc05760008155600101610bc5565b634e487b7160e01b600052604160045260246000fd5b600080600060608486031215610c0457600080fd5b83359250602084013567ffffffffffffffff80821115610c2357600080fd5b818601915086601f830112610c3757600080fd5b813581811115610c4957610c49610bd9565b604051601f8201601f19908116603f01168101908382118183101715610c7157610c71610bd9565b81604052828152896020848701011115610c8a57600080fd5b826020860160208301376000602084830101528096505050505050604084013590509250925092565b6001600160a01b0381168114610a3457600080fd5b600060208284031215610cda57600080fd5b8135610ce581610cb3565b9392505050565b60008060408385031215610cff57600080fd5b823591506020830135610d1181610cb3565b809150509250929050565b600060208284031215610d2e57600080fd5b5035919050565b6001600160a01b0389168152602080820189905261010060408301819052885190830181905260009182915b80831015610d80578a8301820151858401610120015291810191610d61565b80831115610d9357600061012082870101525b610120601f19601f83011686010193505050508660608301528560808301528460a08301528360c0830152610dcc60e083018415159052565b9998505050505050505050565b60008060408385031215610dec57600080fd5b82358015158114610dfc57600080fd5b946020939093013593505050565b600060208284031215610e1c57600080fd5b8151610ce581610cb3565b6020808252818101527f4f776e61626c653a2063616c6c6572206973206e6f7420746865206f776e6572604082015260600190565b634e487b7160e01b600052601160045260246000fd5b6000600019821415610e8657610e86610e5c565b5060010190565b600181811c90821680610ea157607f821691505b60208210811415610ec257634e487b7160e01b600052602260045260246000fd5b50919050565b600081610ed757610ed7610e5c565b506000190190565b60008219821115610ef257610ef2610e5c565b500190565b600082610f1457634e487b7160e01b600052601260045260246000fd5b500490565b6000816000190483118215151615610f3357610f33610e5c565b50029056fea2646970667358221220b95c78d8ff0bda5f53e05fe257592d197b87f04522f5efbd0208268e7ae5aa9a64736f6c634300080a0033",
  "linkReferences": {},
  "deployedLinkReferences": {}
}