{
  "_format": "hh-sol-artifact-1",
  "contractName": "SafeZen",
  "sourceName": "contracts/SafeZen.sol",
  "abi": [
    {
      "inputs": [
        {
          "internalType": "string",
          "name": "_name",
          "type": "string"
        },
        {
          "internalType": "string",
          "name": "_symbol",
          "type": "string"
        },
        {
          "internalType": "contract ISuperfluid",
          "name": "host",
          "type": "address"
        },
        {
          "internalType": "contract IConstantFlowAgreementV1",
          "name": "cfa",
          "type": "address"
        },
        {
          "internalType": "contract ISuperToken",
          "name": "acceptedToken",
          "type": "address"
        },
        {
          "internalType": "address",
          "name": "stakingCA",
          "type": "address"
        },
        {
          "internalType": "address",
          "name": "govCA",
          "type": "address"
        }
      ],
      "stateMutability": "nonpayable",
      "type": "constructor"
    },
    {
      "anonymous": false,
      "inputs": [
        {
          "indexed": true,
          "internalType": "address",
          "name": "owner",
          "type": "address"
        },
        {
          "indexed": true,
          "internalType": "address",
          "name": "approved",
          "type": "address"
        },
        {
          "indexed": true,
          "internalType": "uint256",
          "name": "tokenId",
          "type": "uint256"
        }
      ],
      "name": "Approval",
      "type": "event"
    },
    {
      "anonymous": false,
      "inputs": [
        {
          "indexed": true,
          "internalType": "address",
          "name": "owner",
          "type": "address"
        },
        {
          "indexed": true,
          "internalType": "address",
          "name": "operator",
          "type": "address"
        },
        {
          "indexed": false,
          "internalType": "bool",
          "name": "approved",
          "type": "bool"
        }
      ],
      "name": "ApprovalForAll",
      "type": "event"
    },
    {
      "anonymous": false,
      "inputs": [
        {
          "indexed": true,
          "internalType": "address",
          "name": "previousOwner",
          "type": "address"
        },
        {
          "indexed": true,
          "internalType": "address",
          "name": "newOwner",
          "type": "address"
        }
      ],
      "name": "OwnershipTransferred",
      "type": "event"
    },
    {
      "anonymous": false,
      "inputs": [
        {
          "indexed": false,
          "internalType": "address",
          "name": "account",
          "type": "address"
        }
      ],
      "name": "Paused",
      "type": "event"
    },
    {
      "anonymous": false,
      "inputs": [
        {
          "indexed": true,
          "internalType": "address",
          "name": "from",
          "type": "address"
        },
        {
          "indexed": true,
          "internalType": "address",
          "name": "to",
          "type": "address"
        },
        {
          "indexed": true,
          "internalType": "uint256",
          "name": "tokenId",
          "type": "uint256"
        }
      ],
      "name": "Transfer",
      "type": "event"
    },
    {
      "anonymous": false,
      "inputs": [
        {
          "indexed": false,
          "internalType": "address",
          "name": "account",
          "type": "address"
        }
      ],
      "name": "Unpaused",
      "type": "event"
    },
    {
      "inputs": [],
      "name": "_acceptedToken",
      "outputs": [
        {
          "internalType": "contract ISuperToken",
          "name": "",
          "type": "address"
        }
      ],
      "stateMutability": "view",
      "type": "function"
    },
    {
      "inputs": [
        {
          "internalType": "address",
          "name": "to",
          "type": "address"
        },
        {
          "internalType": "uint256",
          "name": "tokenId",
          "type": "uint256"
        }
      ],
      "name": "approve",
      "outputs": [],
      "stateMutability": "nonpayable",
      "type": "function"
    },
    {
      "inputs": [
        {
          "internalType": "address",
          "name": "owner",
          "type": "address"
        }
      ],
      "name": "balanceOf",
      "outputs": [
        {
          "internalType": "uint256",
          "name": "",
          "type": "uint256"
        }
      ],
      "stateMutability": "view",
      "type": "function"
    },
    {
      "inputs": [
        {
          "internalType": "uint256",
          "name": "_tokenId",
          "type": "uint256"
        }
      ],
      "name": "buildMetadata",
      "outputs": [
        {
          "internalType": "string",
          "name": "",
          "type": "string"
        }
      ],
      "stateMutability": "view",
      "type": "function"
    },
    {
      "inputs": [
        {
          "internalType": "uint256",
          "name": "_tokenId",
          "type": "uint256"
        }
      ],
      "name": "buildPolicy",
      "outputs": [
        {
          "internalType": "string",
          "name": "",
          "type": "string"
        }
      ],
      "stateMutability": "view",
      "type": "function"
    },
    {
      "inputs": [
        {
          "internalType": "uint256",
          "name": "tokenId",
          "type": "uint256"
        }
      ],
      "name": "getApproved",
      "outputs": [
        {
          "internalType": "address",
          "name": "",
          "type": "address"
        }
      ],
      "stateMutability": "view",
      "type": "function"
    },
    {
      "inputs": [
        {
          "internalType": "uint256",
          "name": "_policyId",
          "type": "uint256"
        }
      ],
      "name": "getHolder",
      "outputs": [
        {
          "internalType": "address",
          "name": "",
          "type": "address"
        }
      ],
      "stateMutability": "view",
      "type": "function"
    },
    {
      "inputs": [
        {
          "internalType": "uint256",
          "name": "_policyId",
          "type": "uint256"
        }
      ],
      "name": "getPolicyActivationTime",
      "outputs": [
        {
          "internalType": "uint256",
          "name": "",
          "type": "uint256"
        }
      ],
      "stateMutability": "view",
      "type": "function"
    },
    {
      "inputs": [
        {
          "internalType": "uint256",
          "name": "_policyId",
          "type": "uint256"
        }
      ],
      "name": "getRewardData",
      "outputs": [
        {
          "internalType": "address",
          "name": "policyHolder",
          "type": "address"
        },
        {
          "internalType": "uint256",
          "name": "purchaseTime",
          "type": "uint256"
        },
        {
          "internalType": "uint256",
          "name": "baseAmount",
          "type": "uint256"
        },
        {
          "internalType": "bool",
          "name": "hasClaimed",
          "type": "bool"
        }
      ],
      "stateMutability": "view",
      "type": "function"
    },
    {
      "inputs": [
        {
          "internalType": "uint256",
          "name": "_policyId",
          "type": "uint256"
        }
      ],
      "name": "isActive",
      "outputs": [
        {
          "internalType": "bool",
          "name": "",
          "type": "bool"
        }
      ],
      "stateMutability": "view",
      "type": "function"
    },
    {
      "inputs": [
        {
          "internalType": "address",
          "name": "owner",
          "type": "address"
        },
        {
          "internalType": "address",
          "name": "operator",
          "type": "address"
        }
      ],
      "name": "isApprovedForAll",
      "outputs": [
        {
          "internalType": "bool",
          "name": "",
          "type": "bool"
        }
      ],
      "stateMutability": "view",
      "type": "function"
    },
    {
      "inputs": [
        {
          "internalType": "string",
          "name": "_policyType",
          "type": "string"
        },
        {
          "internalType": "uint256",
          "name": "_coverageAmount",
          "type": "uint256"
        },
        {
          "internalType": "string",
          "name": "_merchant",
          "type": "string"
        },
        {
          "internalType": "int96",
          "name": "_minFlowRate",
          "type": "int96"
        },
        {
          "internalType": "uint256",
          "name": "_baseAmount",
          "type": "uint256"
        }
      ],
      "name": "mint",
      "outputs": [],
      "stateMutability": "payable",
      "type": "function"
    },
    {
      "inputs": [],
      "name": "name",
      "outputs": [
        {
          "internalType": "string",
          "name": "",
          "type": "string"
        }
      ],
      "stateMutability": "view",
      "type": "function"
    },
    {
      "inputs": [],
      "name": "owner",
      "outputs": [
        {
          "internalType": "address",
          "name": "",
          "type": "address"
        }
      ],
      "stateMutability": "view",
      "type": "function"
    },
    {
      "inputs": [
        {
          "internalType": "uint256",
          "name": "tokenId",
          "type": "uint256"
        }
      ],
      "name": "ownerOf",
      "outputs": [
        {
          "internalType": "address",
          "name": "",
          "type": "address"
        }
      ],
      "stateMutability": "view",
      "type": "function"
    },
    {
      "inputs": [],
      "name": "pause",
      "outputs": [],
      "stateMutability": "nonpayable",
      "type": "function"
    },
    {
      "inputs": [],
      "name": "paused",
      "outputs": [
        {
          "internalType": "bool",
          "name": "",
          "type": "bool"
        }
      ],
      "stateMutability": "view",
      "type": "function"
    },
    {
      "inputs": [
        {
          "internalType": "uint256",
          "name": "",
          "type": "uint256"
        }
      ],
      "name": "policies",
      "outputs": [
        {
          "internalType": "address",
          "name": "policyHolder",
          "type": "address"
        },
        {
          "internalType": "uint256",
          "name": "policyID",
          "type": "uint256"
        },
        {
          "internalType": "string",
          "name": "policyType",
          "type": "string"
        },
        {
          "internalType": "uint256",
          "name": "coverageAmount",
          "type": "uint256"
        },
        {
          "internalType": "string",
          "name": "merchant",
          "type": "string"
        },
        {
          "internalType": "int96",
          "name": "minFlowRate",
          "type": "int96"
        },
        {
          "internalType": "uint256",
          "name": "purchaseTime",
          "type": "uint256"
        },
        {
          "internalType": "bool",
          "name": "isActive",
          "type": "bool"
        },
        {
          "internalType": "bool",
          "name": "hasClaimed",
          "type": "bool"
        },
        {
          "internalType": "uint256",
          "name": "amountPaid",
          "type": "uint256"
        },
        {
          "internalType": "uint256",
          "name": "baseAmount",
          "type": "uint256"
        },
        {
          "internalType": "string",
          "name": "textHue",
          "type": "string"
        },
        {
          "internalType": "string",
          "name": "bgHue",
          "type": "string"
        }
      ],
      "stateMutability": "view",
      "type": "function"
    },
    {
      "inputs": [
        {
          "internalType": "uint256",
          "name": "_mod",
          "type": "uint256"
        },
        {
          "internalType": "uint256",
          "name": "_seed",
          "type": "uint256"
        },
        {
          "internalType": "uint256",
          "name": "_salt",
          "type": "uint256"
        }
      ],
      "name": "randomNum",
      "outputs": [
        {
          "internalType": "uint256",
          "name": "",
          "type": "uint256"
        }
      ],
      "stateMutability": "view",
      "type": "function"
    },
    {
      "inputs": [],
      "name": "renounceOwnership",
      "outputs": [],
      "stateMutability": "nonpayable",
      "type": "function"
    },
    {
      "inputs": [
        {
          "internalType": "address",
          "name": "from",
          "type": "address"
        },
        {
          "internalType": "address",
          "name": "to",
          "type": "address"
        },
        {
          "internalType": "uint256",
          "name": "tokenId",
          "type": "uint256"
        }
      ],
      "name": "safeTransferFrom",
      "outputs": [],
      "stateMutability": "nonpayable",
      "type": "function"
    },
    {
      "inputs": [
        {
          "internalType": "address",
          "name": "from",
          "type": "address"
        },
        {
          "internalType": "address",
          "name": "to",
          "type": "address"
        },
        {
          "internalType": "uint256",
          "name": "tokenId",
          "type": "uint256"
        },
        {
          "internalType": "bytes",
          "name": "_data",
          "type": "bytes"
        }
      ],
      "name": "safeTransferFrom",
      "outputs": [],
      "stateMutability": "nonpayable",
      "type": "function"
    },
    {
      "inputs": [
        {
          "internalType": "address",
          "name": "_receiver",
          "type": "address"
        },
        {
          "internalType": "uint256",
          "name": "_amount",
          "type": "uint256"
        }
      ],
      "name": "sendInsuranceClaim",
      "outputs": [],
      "stateMutability": "nonpayable",
      "type": "function"
    },
    {
      "inputs": [
        {
          "internalType": "address",
          "name": "operator",
          "type": "address"
        },
        {
          "internalType": "bool",
          "name": "approved",
          "type": "bool"
        }
      ],
      "name": "setApprovalForAll",
      "outputs": [],
      "stateMutability": "nonpayable",
      "type": "function"
    },
    {
      "inputs": [
        {
          "internalType": "bytes4",
          "name": "interfaceId",
          "type": "bytes4"
        }
      ],
      "name": "supportsInterface",
      "outputs": [
        {
          "internalType": "bool",
          "name": "",
          "type": "bool"
        }
      ],
      "stateMutability": "view",
      "type": "function"
    },
    {
      "inputs": [],
      "name": "symbol",
      "outputs": [
        {
          "internalType": "string",
          "name": "",
          "type": "string"
        }
      ],
      "stateMutability": "view",
      "type": "function"
    },
    {
      "inputs": [
        {
          "internalType": "uint256",
          "name": "index",
          "type": "uint256"
        }
      ],
      "name": "tokenByIndex",
      "outputs": [
        {
          "internalType": "uint256",
          "name": "",
          "type": "uint256"
        }
      ],
      "stateMutability": "view",
      "type": "function"
    },
    {
      "inputs": [
        {
          "internalType": "address",
          "name": "owner",
          "type": "address"
        },
        {
          "internalType": "uint256",
          "name": "index",
          "type": "uint256"
        }
      ],
      "name": "tokenOfOwnerByIndex",
      "outputs": [
        {
          "internalType": "uint256",
          "name": "",
          "type": "uint256"
        }
      ],
      "stateMutability": "view",
      "type": "function"
    },
    {
      "inputs": [
        {
          "internalType": "uint256",
          "name": "_tokenId",
          "type": "uint256"
        }
      ],
      "name": "tokenURI",
      "outputs": [
        {
          "internalType": "string",
          "name": "",
          "type": "string"
        }
      ],
      "stateMutability": "view",
      "type": "function"
    },
    {
      "inputs": [],
      "name": "totalSupply",
      "outputs": [
        {
          "internalType": "uint256",
          "name": "",
          "type": "uint256"
        }
      ],
      "stateMutability": "view",
      "type": "function"
    },
    {
      "inputs": [
        {
          "internalType": "address",
          "name": "from",
          "type": "address"
        },
        {
          "internalType": "address",
          "name": "to",
          "type": "address"
        },
        {
          "internalType": "uint256",
          "name": "tokenId",
          "type": "uint256"
        }
      ],
      "name": "transferFrom",
      "outputs": [],
      "stateMutability": "nonpayable",
      "type": "function"
    },
    {
      "inputs": [
        {
          "internalType": "address",
          "name": "newOwner",
          "type": "address"
        }
      ],
      "name": "transferOwnership",
      "outputs": [],
      "stateMutability": "nonpayable",
      "type": "function"
    },
    {
      "inputs": [],
      "name": "unpause",
      "outputs": [],
      "stateMutability": "nonpayable",
      "type": "function"
    }
  ],
  "bytecode": "0x60806040523480156200001157600080fd5b5060405162004b5238038062004b5283398101604081905262000034916200032c565b8651879087906200004d906000906020850190620001a0565b50805162000063906001906020840190620001a0565b505050620000806200007a6200014a60201b60201c565b6200014e565b600a805460ff60a01b191690556001600b55600c80546001600160a01b038088166001600160a01b03199283168117909355600d8054888316908416179055600e805491871691909216179055620000dc57620000dc62000403565b600d546001600160a01b0316620000f757620000f762000403565b600e546001600160a01b031662000112576200011262000403565b601080546001600160a01b039384166001600160a01b0319918216179091556011805492909316911617905550620004569350505050565b3390565b600a80546001600160a01b038381166001600160a01b0319831681179093556040519116919082907f8be0079c531659141344cd1fd0a4f28419497f9722a3daafe3b4186f6b6457e090600090a35050565b828054620001ae9062000419565b90600052602060002090601f016020900481019282620001d257600085556200021d565b82601f10620001ed57805160ff19168380011785556200021d565b828001600101855582156200021d579182015b828111156200021d57825182559160200191906001019062000200565b506200022b9291506200022f565b5090565b5b808211156200022b576000815560010162000230565b634e487b7160e01b600052604160045260246000fd5b600082601f8301126200026e57600080fd5b81516001600160401b03808211156200028b576200028b62000246565b604051601f8301601f19908116603f01168101908282118183101715620002b657620002b662000246565b81604052838152602092508683858801011115620002d357600080fd5b600091505b83821015620002f75785820183015181830184015290820190620002d8565b83821115620003095760008385830101525b9695505050505050565b6001600160a01b03811681146200032957600080fd5b50565b600080600080600080600060e0888a0312156200034857600080fd5b87516001600160401b03808211156200036057600080fd5b6200036e8b838c016200025c565b985060208a01519150808211156200038557600080fd5b50620003948a828b016200025c565b9650506040880151620003a78162000313565b6060890151909550620003ba8162000313565b6080890151909450620003cd8162000313565b60a0890151909350620003e08162000313565b60c0890151909250620003f38162000313565b8091505092959891949750929550565b634e487b7160e01b600052600160045260246000fd5b600181811c908216806200042e57607f821691505b602082108114156200045057634e487b7160e01b600052602260045260246000fd5b50919050565b6146ec80620004666000396000f3fe6080604052600436106101ee5760003560e01c806370a082311161010d57806395d89b41116100a0578063d3e894831161006f578063d3e89483146105c7578063e8a96b4614610600578063e985e9c514610620578063edf8770414610669578063f2fde38b1461068957600080fd5b806395d89b4114610552578063a22cb46514610567578063b88d4fde14610587578063c87b56dd146105a757600080fd5b80638456cb59116100dc5780638456cb591461047f578063857dc5b6146104945780638da5cb5b146104b45780638faea73a146104d257600080fd5b806370a082311461040a578063715018a61461042a578063827724811461043f57806382afd23b1461045f57600080fd5b80633001e5df116101855780634e5b3c7c116101545780634e5b3c7c1461038b5780634f6ccce7146103ab5780635c975abb146103cb5780636352211e146103ea57600080fd5b80633001e5df1461032357806336892fb2146103435780633f4ba83a1461035657806342842e0e1461036b57600080fd5b806318160ddd116101c157806318160ddd146102a457806323b872dd146102c357806328294640146102e35780632f745c591461030357600080fd5b806301ffc9a7146101f357806306fdde0314610228578063081812fc1461024a578063095ea7b314610282575b600080fd5b3480156101ff57600080fd5b5061021361020e366004613236565b6106a9565b60405190151581526020015b60405180910390f35b34801561023457600080fd5b5061023d6106d4565b60405161021f91906132b2565b34801561025657600080fd5b5061026a6102653660046132c5565b610766565b6040516001600160a01b03909116815260200161021f565b34801561028e57600080fd5b506102a261029d3660046132f5565b610800565b005b3480156102b057600080fd5b506008545b60405190815260200161021f565b3480156102cf57600080fd5b506102a26102de36600461331f565b610916565b3480156102ef57600080fd5b506102b56102fe36600461335b565b610947565b34801561030f57600080fd5b506102b561031e3660046132f5565b6109af565b34801561032f57600080fd5b506102a261033e3660046132f5565b610a45565b6102a2610351366004613442565b610b35565b34801561036257600080fd5b506102a2610d3e565b34801561037757600080fd5b506102a261038636600461331f565b610d72565b34801561039757600080fd5b50600e5461026a906001600160a01b031681565b3480156103b757600080fd5b506102b56103c63660046132c5565b610d8d565b3480156103d757600080fd5b50600a54600160a01b900460ff16610213565b3480156103f657600080fd5b5061026a6104053660046132c5565b610e20565b34801561041657600080fd5b506102b56104253660046134ca565b610e97565b34801561043657600080fd5b506102a2610f1e565b34801561044b57600080fd5b5061023d61045a3660046132c5565b610f52565b34801561046b57600080fd5b5061021361047a3660046132c5565b6113d2565b34801561048b57600080fd5b506102a2611497565b3480156104a057600080fd5b506102b56104af3660046132c5565b6114c9565b3480156104c057600080fd5b50600a546001600160a01b031661026a565b3480156104de57600080fd5b506105266104ed3660046132c5565b600090815260126020526040902060068101546009820154600783015492546001600160a01b0316939192909161010090910460ff1690565b604080516001600160a01b0390951685526020850193909352918301521515606082015260800161021f565b34801561055e57600080fd5b5061023d6115ca565b34801561057357600080fd5b506102a26105823660046134e5565b6115d9565b34801561059357600080fd5b506102a26105a2366004613521565b6115e8565b3480156105b357600080fd5b5061023d6105c23660046132c5565b611620565b3480156105d357600080fd5b506105e76105e23660046132c5565b6116a8565b60405161021f9d9c9b9a9998979695949392919061359d565b34801561060c57600080fd5b5061026a61061b3660046132c5565b611942565b34801561062c57600080fd5b5061021361063b366004613658565b6001600160a01b03918216600090815260056020908152604080832093909416825291909152205460ff1690565b34801561067557600080fd5b5061023d6106843660046132c5565b611c25565b34801561069557600080fd5b506102a26106a43660046134ca565b61207a565b60006001600160e01b0319821663780e9d6360e01b14806106ce57506106ce82612115565b92915050565b6060600080546106e39061368b565b80601f016020809104026020016040519081016040528092919081815260200182805461070f9061368b565b801561075c5780601f106107315761010080835404028352916020019161075c565b820191906000526020600020905b81548152906001019060200180831161073f57829003601f168201915b5050505050905090565b6000818152600260205260408120546001600160a01b03166107e45760405162461bcd60e51b815260206004820152602c60248201527f4552433732313a20617070726f76656420717565727920666f72206e6f6e657860448201526b34b9ba32b73a103a37b5b2b760a11b60648201526084015b60405180910390fd5b506000908152600460205260409020546001600160a01b031690565b600061080b82610e20565b9050806001600160a01b0316836001600160a01b031614156108795760405162461bcd60e51b815260206004820152602160248201527f4552433732313a20617070726f76616c20746f2063757272656e74206f776e656044820152603960f91b60648201526084016107db565b336001600160a01b03821614806108955750610895813361063b565b6109075760405162461bcd60e51b815260206004820152603860248201527f4552433732313a20617070726f76652063616c6c6572206973206e6f74206f7760448201527f6e6572206e6f7220617070726f76656420666f7220616c6c000000000000000060648201526084016107db565b6109118383612165565b505050565b61092033826121d3565b61093c5760405162461bcd60e51b81526004016107db906136c6565b6109118383836122ca565b604080514260208201526bffffffffffffffffffffffff193360601b16918101919091526054810183905260748101829052600090819085906094016040516020818303038152906040528051906020012060001c6109a6919061372d565b95945050505050565b60006109ba83610e97565b8210610a1c5760405162461bcd60e51b815260206004820152602b60248201527f455243373231456e756d657261626c653a206f776e657220696e646578206f7560448201526a74206f6620626f756e647360a81b60648201526084016107db565b506001600160a01b03919091166000908152600660209081526040808320938352929052205490565b600f546001600160a01b03163314610a925760405162461bcd60e51b815260206004820152601060248201526f1393d50811d3d58810d3d395149050d560821b60448201526064016107db565b6000826001600160a01b03168260405160006040518083038185875af1925050503d8060008114610adf576040519150601f19603f3d011682016040523d82523d6000602084013e610ae4565b606091505b50509050806109115760405162461bcd60e51b815260206004820152601f60248201527f494e535552414e434520434c41494d205452414e53464552204641494c45440060448201526064016107db565b6000610b4060085490565b90506000604051806101a00160405280336001600160a01b03168152602001836001610b6c9190613757565b815260200188815260200187815260200186815260200185600b0b815260200142815260200160001515815260200160001515815260200160008152602001848152602001610bc6610bc16101694487610947565b612471565b8152602001610bdb610bc16101694287610947565b905290508060126000610bef856001613757565b81526020808201929092526040908101600020835181546001600160a01b0319166001600160a01b039091161781558383015160018201559083015180519192610c4192600285019290910190613187565b506060820151600382015560808201518051610c67916004840191602090910190613187565b5060a08201516005820180546001600160601b039092166bffffffffffffffffffffffff1990921691909117905560c0820151600682015560e08201516007820180546101008086015115150261ff00199315159390931661ffff1990911617919091179055610120820151600882015561014082015160098201556101608201518051610cff91600a840191602090910190613187565b506101808201518051610d1c91600b840191602090910190613187565b50610d359150339050610d30846001613757565b61256f565b50505050505050565b600a546001600160a01b03163314610d685760405162461bcd60e51b81526004016107db9061376f565b610d70612589565b565b610911838383604051806020016040528060008152506115e8565b6000610d9860085490565b8210610dfb5760405162461bcd60e51b815260206004820152602c60248201527f455243373231456e756d657261626c653a20676c6f62616c20696e646578206f60448201526b7574206f6620626f756e647360a01b60648201526084016107db565b60088281548110610e0e57610e0e6137a4565b90600052602060002001549050919050565b6000818152600260205260408120546001600160a01b0316806106ce5760405162461bcd60e51b815260206004820152602960248201527f4552433732313a206f776e657220717565727920666f72206e6f6e657869737460448201526832b73a103a37b5b2b760b91b60648201526084016107db565b60006001600160a01b038216610f025760405162461bcd60e51b815260206004820152602a60248201527f4552433732313a2062616c616e636520717565727920666f7220746865207a65604482015269726f206164647265737360b01b60648201526084016107db565b506001600160a01b031660009081526003602052604090205490565b600a546001600160a01b03163314610f485760405162461bcd60e51b81526004016107db9061376f565b610d706000612626565b600081815260126020908152604080832081516101a08101835281546001600160a01b03168152600182015493810193909352600281018054606095949384019190610f9d9061368b565b80601f0160208091040260200160405190810160405280929190818152602001828054610fc99061368b565b80156110165780601f10610feb57610100808354040283529160200191611016565b820191906000526020600020905b815481529060010190602001808311610ff957829003601f168201915b50505050508152602001600382015481526020016004820180546110399061368b565b80601f01602080910402602001604051908101604052809291908181526020018280546110659061368b565b80156110b25780601f10611087576101008083540402835291602001916110b2565b820191906000526020600020905b81548152906001019060200180831161109557829003601f168201915b50505091835250506005820154600b0b602082015260068201546040820152600782015460ff808216151560608401526101009091041615156080820152600882015460a0820152600982015460c0820152600a8201805460e0909201916111199061368b565b80601f01602080910402602001604051908101604052809291908181526020018280546111459061368b565b80156111925780601f1061116757610100808354040283529160200191611192565b820191906000526020600020905b81548152906001019060200180831161117557829003601f168201915b50505050508152602001600b820180546111ab9061368b565b80601f01602080910402602001604051908101604052809291908181526020018280546111d79061368b565b80156112245780601f106111f957610100808354040283529160200191611224565b820191906000526020600020905b81548152906001019060200180831161120757829003601f168201915b505050505081525050905060008060006112418460c00151612678565b9250925092506000611252876113d2565b611279576040518060400160405280600581526020016446616c736560d81b815250611297565b604051806040016040528060048152602001635472756560e01b8152505b905060008561018001516112ae876000015161269e565b87608001516040516020016112c5939291906137d6565b604051602081830303815290604052905060006112e58760200151612471565b87604001516112f78960600151612471565b604051602001611309939291906139f9565b604051602081830303815290604052905060006113328860a001516001600160601b0316612471565b61133b86612471565b61134488612471565b61134d8a612471565b6040516020016113609493929190613b96565b60405160208183030381529060405290506000846040516020016113849190613cc6565b60405160208183030381529060405290506113c3848484846040516020016113af9493929190613d7a565b6040516020818303038152906040526127e5565b9b9a5050505050505050505050565b600d54600e5460009182916001600160a01b039182169163e6a1e88891166113f986611942565b6040516001600160e01b031960e085901b1681526001600160a01b03928316600482015291166024820152306044820152606401608060405180830381865afa15801561144a573d6000803e3d6000fd5b505050506040513d601f19601f8201168201806040525081019061146e9190613dd1565b505060009485526012602052604090942060050154600b90810b94900b93909312159392505050565b600a546001600160a01b031633146114c15760405162461bcd60e51b81526004016107db9061376f565b610d7061294d565b6000818152600260205260408120546001600160a01b03166115255760405162461bcd60e51b81526020600482015260156024820152741413d31250d6481113d154c81393d50811561254d5605a1b60448201526064016107db565b600d54600e546000916001600160a01b039081169163e6a1e888911661154a86611942565b6040516001600160e01b031960e085901b1681526001600160a01b03928316600482015291166024820152306044820152606401608060405180830381865afa15801561159b573d6000803e3d6000fd5b505050506040513d601f19601f820116820180604052508101906115bf9190613dd1565b509195945050505050565b6060600180546106e39061368b565b6115e43383836129d5565b5050565b6115f233836121d3565b61160e5760405162461bcd60e51b81526004016107db906136c6565b61161a84848484612aa4565b50505050565b6000818152600260205260409020546060906001600160a01b031661169f5760405162461bcd60e51b815260206004820152602f60248201527f4552433732314d657461646174613a2055524920717565727920666f72206e6f60448201526e3732bc34b9ba32b73a103a37b5b2b760891b60648201526084016107db565b6106ce82611c25565b6012602052600090815260409020805460018201546002830180546001600160a01b039093169391926116da9061368b565b80601f01602080910402602001604051908101604052809291908181526020018280546117069061368b565b80156117535780601f1061172857610100808354040283529160200191611753565b820191906000526020600020905b81548152906001019060200180831161173657829003601f168201915b50505050509080600301549080600401805461176e9061368b565b80601f016020809104026020016040519081016040528092919081815260200182805461179a9061368b565b80156117e75780601f106117bc576101008083540402835291602001916117e7565b820191906000526020600020905b8154815290600101906020018083116117ca57829003601f168201915b5050505060058301546006840154600785015460088601546009870154600a880180549798600b9690960b9794965060ff808516966101009095041694929391926118319061368b565b80601f016020809104026020016040519081016040528092919081815260200182805461185d9061368b565b80156118aa5780601f1061187f576101008083540402835291602001916118aa565b820191906000526020600020905b81548152906001019060200180831161188d57829003601f168201915b50505050509080600b0180546118bf9061368b565b80601f01602080910402602001604051908101604052809291908181526020018280546118eb9061368b565b80156119385780601f1061190d57610100808354040283529160200191611938565b820191906000526020600020905b81548152906001019060200180831161191b57829003601f168201915b505050505090508d565b600081815260126020908152604080832081516101a08101835281546001600160a01b031681526001820154938101939093526002810180548594938401919061198b9061368b565b80601f01602080910402602001604051908101604052809291908181526020018280546119b79061368b565b8015611a045780601f106119d957610100808354040283529160200191611a04565b820191906000526020600020905b8154815290600101906020018083116119e757829003601f168201915b5050505050815260200160038201548152602001600482018054611a279061368b565b80601f0160208091040260200160405190810160405280929190818152602001828054611a539061368b565b8015611aa05780601f10611a7557610100808354040283529160200191611aa0565b820191906000526020600020905b815481529060010190602001808311611a8357829003601f168201915b50505091835250506005820154600b0b602082015260068201546040820152600782015460ff808216151560608401526101009091041615156080820152600882015460a0820152600982015460c0820152600a8201805460e090920191611b079061368b565b80601f0160208091040260200160405190810160405280929190818152602001828054611b339061368b565b8015611b805780601f10611b5557610100808354040283529160200191611b80565b820191906000526020600020905b815481529060010190602001808311611b6357829003601f168201915b50505050508152602001600b82018054611b999061368b565b80601f0160208091040260200160405190810160405280929190818152602001828054611bc59061368b565b8015611c125780601f10611be757610100808354040283529160200191611c12565b820191906000526020600020905b815481529060010190602001808311611bf557829003601f168201915b5050509190925250509051949350505050565b600081815260126020908152604080832081516101a08101835281546001600160a01b03168152600182015493810193909352600281018054606095949384019190611c709061368b565b80601f0160208091040260200160405190810160405280929190818152602001828054611c9c9061368b565b8015611ce95780601f10611cbe57610100808354040283529160200191611ce9565b820191906000526020600020905b815481529060010190602001808311611ccc57829003601f168201915b5050505050815260200160038201548152602001600482018054611d0c9061368b565b80601f0160208091040260200160405190810160405280929190818152602001828054611d389061368b565b8015611d855780601f10611d5a57610100808354040283529160200191611d85565b820191906000526020600020905b815481529060010190602001808311611d6857829003601f168201915b50505091835250506005820154600b0b602082015260068201546040820152600782015460ff808216151560608401526101009091041615156080820152600882015460a0820152600982015460c0820152600a8201805460e090920191611dec9061368b565b80601f0160208091040260200160405190810160405280929190818152602001828054611e189061368b565b8015611e655780601f10611e3a57610100808354040283529160200191611e65565b820191906000526020600020905b815481529060010190602001808311611e4857829003601f168201915b50505050508152602001600b82018054611e7e9061368b565b80601f0160208091040260200160405190810160405280929190818152602001828054611eaa9061368b565b8015611ef75780601f10611ecc57610100808354040283529160200191611ef7565b820191906000526020600020905b815481529060010190602001808311611eda57829003601f168201915b50505050508152505090506000611f0d846113d2565b611f34576040518060400160405280600581526020016446616c736560d81b815250611f52565b604051806040016040528060048152602001635472756560e01b8152505b905060008260400151611f6486610f52565b8451611f6f9061269e565b611f7c8660200151612471565b604051602001611f8f9493929190613e0f565b60405160208183030381529060405290506000611faf8460600151612471565b611fc58560a001516001600160601b0316612471565b611fd28660c00151612471565b604051602001611fe493929190613fb6565b6040516020818303038152906040529050600083612006866101200151612471565b612014876101400151612471565b604051602001612026939291906140b5565b604051602081830303815290604052905061204f8383836040516020016113af939291906141c3565b60405160200161205f9190614206565b60405160208183030381529060405295505050505050919050565b600a546001600160a01b031633146120a45760405162461bcd60e51b81526004016107db9061376f565b6001600160a01b0381166121095760405162461bcd60e51b815260206004820152602660248201527f4f776e61626c653a206e6577206f776e657220697320746865207a65726f206160448201526564647265737360d01b60648201526084016107db565b61211281612626565b50565b60006001600160e01b031982166380ac58cd60e01b148061214657506001600160e01b03198216635b5e139f60e01b145b806106ce57506301ffc9a760e01b6001600160e01b03198316146106ce565b600081815260046020526040902080546001600160a01b0319166001600160a01b038416908117909155819061219a82610e20565b6001600160a01b03167f8c5be1e5ebec7d5bd14f71427d1e84f3dd0314c0f7b2291e5b200ac8c7c3b92560405160405180910390a45050565b6000818152600260205260408120546001600160a01b031661224c5760405162461bcd60e51b815260206004820152602c60248201527f4552433732313a206f70657261746f7220717565727920666f72206e6f6e657860448201526b34b9ba32b73a103a37b5b2b760a11b60648201526084016107db565b600061225783610e20565b9050806001600160a01b0316846001600160a01b0316148061229e57506001600160a01b0380821660009081526005602090815260408083209388168352929052205460ff165b806122c25750836001600160a01b03166122b784610766565b6001600160a01b0316145b949350505050565b826001600160a01b03166122dd82610e20565b6001600160a01b0316146123415760405162461bcd60e51b815260206004820152602560248201527f4552433732313a207472616e736665722066726f6d20696e636f72726563742060448201526437bbb732b960d91b60648201526084016107db565b6001600160a01b0382166123a35760405162461bcd60e51b8152602060048201526024808201527f4552433732313a207472616e7366657220746f20746865207a65726f206164646044820152637265737360e01b60648201526084016107db565b6123ae838383612ad7565b6123b9600082612165565b6001600160a01b03831660009081526003602052604081208054600192906123e290849061424b565b90915550506001600160a01b0382166000908152600360205260408120805460019290612410908490613757565b909155505060008181526002602052604080822080546001600160a01b0319166001600160a01b0386811691821790925591518493918716917fddf252ad1be2c89b69c2b068fc378daa952ba7f163c4a11628f55a4df523b3ef91a4505050565b6060816124955750506040805180820190915260018152600360fc1b602082015290565b8160005b81156124bf57806124a981614262565b91506124b89050600a8361427d565b9150612499565b60008167ffffffffffffffff8111156124da576124da613387565b6040519080825280601f01601f191660200182016040528015612504576020820181803683370190505b5090505b84156122c25761251960018361424b565b9150612526600a8661372d565b612531906030613757565b60f81b818381518110612546576125466137a4565b60200101906001600160f81b031916908160001a905350612568600a8661427d565b9450612508565b6115e4828260405180602001604052806000815250612b11565b600a54600160a01b900460ff166125d95760405162461bcd60e51b815260206004820152601460248201527314185d5cd8589b194e881b9bdd081c185d5cd95960621b60448201526064016107db565b600a805460ff60a01b191690557f5db9ee0a495bf2e6ff9c91a7834c1ba4fdd244a5e8aa4e537bd38aeae4b073aa335b6040516001600160a01b03909116815260200160405180910390a1565b600a80546001600160a01b038381166001600160a01b0319831681179093556040519116919082907f8be0079c531659141344cd1fd0a4f28419497f9722a3daafe3b4186f6b6457e090600090a35050565b6000808061269161268c620151808661427d565b612b44565b9196909550909350915050565b60408051602880825260608281019093526000919060208201818036833701905050905060005b60148110156127de5760006126db82601361424b565b6126e6906008614291565b6126f1906002614394565b612704906001600160a01b03871661427d565b60f81b9050600060108260f81c61271b91906143a0565b60f81b905060008160f81c601061273291906143c2565b8360f81c61274091906143e3565b60f81b905061274e82612cb8565b8561275a866002614291565b8151811061276a5761276a6137a4565b60200101906001600160f81b031916908160001a90535061278a81612cb8565b85612796866002614291565b6127a1906001613757565b815181106127b1576127b16137a4565b60200101906001600160f81b031916908160001a90535050505080806127d690614262565b9150506126c5565b5092915050565b606081516000141561280557505060408051602081019091526000815290565b600060405180606001604052806040815260200161465760409139905060006003845160026128349190613757565b61283e919061427d565b612849906004614291565b90506000612858826020613757565b67ffffffffffffffff81111561287057612870613387565b6040519080825280601f01601f19166020018201604052801561289a576020820181803683370190505b509050818152600183018586518101602084015b818310156129085760039283018051603f601282901c811687015160f890811b8552600c83901c8216880151811b6001860152600683901c8216880151811b60028601529116860151901b938201939093526004016128ae565b60038951066001811461292257600281146129335761293f565b613d3d60f01b60011983015261293f565b603d60f81b6000198301525b509398975050505050505050565b600a54600160a01b900460ff161561299a5760405162461bcd60e51b815260206004820152601060248201526f14185d5cd8589b194e881c185d5cd95960821b60448201526064016107db565b600a805460ff60a01b1916600160a01b1790557f62e78cea01bee320cd4e420270b5ea74000d11b0c9f74754ebdbfc544b05a2586126093390565b816001600160a01b0316836001600160a01b03161415612a375760405162461bcd60e51b815260206004820152601960248201527f4552433732313a20617070726f766520746f2063616c6c65720000000000000060448201526064016107db565b6001600160a01b03838116600081815260056020908152604080832094871680845294825291829020805460ff191686151590811790915591519182527f17307eab39ab6107e8899845ad3d59bd9653f200f220920489ca2b5937696c31910160405180910390a3505050565b612aaf8484846122ca565b612abb84848484612cf3565b61161a5760405162461bcd60e51b81526004016107db90614406565b612ae2838383612df1565b600090815260126020526040902080546001600160a01b0319166001600160a01b039290921691909117905550565b612b1b8383612ea9565b612b286000848484612cf3565b6109115760405162461bcd60e51b81526004016107db90614406565b60008080838162253d8c612b5b8362010bd9614458565b612b659190614458565b9050600062023ab1612b78836004614499565b612b82919061451e565b90506004612b938262023ab1614499565b612b9e906003614458565b612ba8919061451e565b612bb2908361454c565b9150600062164b09612bc5846001614458565b612bd190610fa0614499565b612bdb919061451e565b90506004612beb826105b5614499565b612bf5919061451e565b612bff908461454c565b612c0a90601f614458565b9250600061098f612c1c856050614499565b612c26919061451e565b905060006050612c388361098f614499565b612c42919061451e565b612c4c908661454c565b9050612c59600b8361451e565b9450612c6685600c614499565b612c71836002614458565b612c7b919061454c565b91508483612c8a60318761454c565b612c95906064614499565b612c9f9190614458565b612ca99190614458565b9a919950975095505050505050565b6000600a60f883901c1015612cdf57612cd660f883901c603061458b565b60f81b92915050565b612cd660f883901c605761458b565b919050565b60006001600160a01b0384163b15612de657604051630a85bd0160e11b81526001600160a01b0385169063150b7a0290612d379033908990889088906004016145b0565b6020604051808303816000875af1925050508015612d72575060408051601f3d908101601f19168201909252612d6f918101906145e3565b60015b612dcc573d808015612da0576040519150601f19603f3d011682016040523d82523d6000602084013e612da5565b606091505b508051612dc45760405162461bcd60e51b81526004016107db90614406565b805181602001fd5b6001600160e01b031916630a85bd0160e11b1490506122c2565b506001949350505050565b6001600160a01b038316612e4c57612e4781600880546000838152600960205260408120829055600182018355919091527ff3f7a9fe364faab93b216da50a3214154f22a0a2b415b23a84c8169e8b636ee30155565b612e6f565b816001600160a01b0316836001600160a01b031614612e6f57612e6f8382612ff7565b6001600160a01b038216612e865761091181613094565b826001600160a01b0316826001600160a01b031614610911576109118282613143565b6001600160a01b038216612eff5760405162461bcd60e51b815260206004820181905260248201527f4552433732313a206d696e7420746f20746865207a65726f206164647265737360448201526064016107db565b6000818152600260205260409020546001600160a01b031615612f645760405162461bcd60e51b815260206004820152601c60248201527f4552433732313a20746f6b656e20616c7265616479206d696e7465640000000060448201526064016107db565b612f7060008383612ad7565b6001600160a01b0382166000908152600360205260408120805460019290612f99908490613757565b909155505060008181526002602052604080822080546001600160a01b0319166001600160a01b03861690811790915590518392907fddf252ad1be2c89b69c2b068fc378daa952ba7f163c4a11628f55a4df523b3ef908290a45050565b6000600161300484610e97565b61300e919061424b565b600083815260076020526040902054909150808214613061576001600160a01b03841660009081526006602090815260408083208584528252808320548484528184208190558352600790915290208190555b5060009182526007602090815260408084208490556001600160a01b039094168352600681528383209183525290812055565b6008546000906130a69060019061424b565b600083815260096020526040812054600880549394509092849081106130ce576130ce6137a4565b9060005260206000200154905080600883815481106130ef576130ef6137a4565b600091825260208083209091019290925582815260099091526040808220849055858252812055600880548061312757613127614600565b6001900381819060005260206000200160009055905550505050565b600061314e83610e97565b6001600160a01b039093166000908152600660209081526040808320868452825280832085905593825260079052919091209190915550565b8280546131939061368b565b90600052602060002090601f0160209004810192826131b557600085556131fb565b82601f106131ce57805160ff19168380011785556131fb565b828001600101855582156131fb579182015b828111156131fb5782518255916020019190600101906131e0565b5061320792915061320b565b5090565b5b80821115613207576000815560010161320c565b6001600160e01b03198116811461211257600080fd5b60006020828403121561324857600080fd5b813561325381613220565b9392505050565b60005b8381101561327557818101518382015260200161325d565b8381111561161a5750506000910152565b6000815180845261329e81602086016020860161325a565b601f01601f19169290920160200192915050565b6020815260006132536020830184613286565b6000602082840312156132d757600080fd5b5035919050565b80356001600160a01b0381168114612cee57600080fd5b6000806040838503121561330857600080fd5b613311836132de565b946020939093013593505050565b60008060006060848603121561333457600080fd5b61333d846132de565b925061334b602085016132de565b9150604084013590509250925092565b60008060006060848603121561337057600080fd5b505081359360208301359350604090920135919050565b634e487b7160e01b600052604160045260246000fd5b600067ffffffffffffffff808411156133b8576133b8613387565b604051601f8501601f19908116603f011681019082821181831017156133e0576133e0613387565b816040528093508581528686860111156133f957600080fd5b858560208301376000602087830101525050509392505050565b600082601f83011261342457600080fd5b6132538383356020850161339d565b80600b0b811461211257600080fd5b600080600080600060a0868803121561345a57600080fd5b853567ffffffffffffffff8082111561347257600080fd5b61347e89838a01613413565b965060208801359550604088013591508082111561349b57600080fd5b506134a888828901613413565b93505060608601356134b981613433565b949793965091946080013592915050565b6000602082840312156134dc57600080fd5b613253826132de565b600080604083850312156134f857600080fd5b613501836132de565b91506020830135801515811461351657600080fd5b809150509250929050565b6000806000806080858703121561353757600080fd5b613540856132de565b935061354e602086016132de565b925060408501359150606085013567ffffffffffffffff81111561357157600080fd5b8501601f8101871361358257600080fd5b6135918782356020840161339d565b91505092959194509250565b6001600160a01b038e1681528c60208201526101a0604082015260006135c76101a083018e613286565b8c606084015282810360808401526135df818d613286565b90506135f060a084018c600b0b9052565b8960c084015261360460e084018a15159052565b871515610100840152866101208401528561014084015282810361016084015261362e8186613286565b90508281036101808401526136438185613286565b9150509e9d5050505050505050505050505050565b6000806040838503121561366b57600080fd5b613674836132de565b9150613682602084016132de565b90509250929050565b600181811c9082168061369f57607f821691505b602082108114156136c057634e487b7160e01b600052602260045260246000fd5b50919050565b60208082526031908201527f4552433732313a207472616e736665722063616c6c6572206973206e6f74206f6040820152701ddb995c881b9bdc88185c1c1c9bdd9959607a1b606082015260800190565b634e487b7160e01b600052601260045260246000fd5b60008261373c5761373c613717565b500690565b634e487b7160e01b600052601160045260246000fd5b6000821982111561376a5761376a613741565b500190565b6020808252818101527f4f776e61626c653a2063616c6c6572206973206e6f7420746865206f776e6572604082015260600190565b634e487b7160e01b600052603260045260246000fd5b600081516137cc81856020860161325a565b9290920192915050565b7f3c7376672077696474683d2235303022206865696768743d223530302220786d81527f6c6e733d22687474703a2f2f7777772e77332e6f72672f323030302f737667226020820152601f60f91b604082015275078e4cac6e840f27a44604440ccd2d8d87a44d0e6d8560531b60418201526000845161385d81605785016020890161325a565b7f2c313030252c3830252922207374726f6b653d22233030302220783d222d302e6057918401918201527f35222077696474683d2235303022206865696768743d22353030222f3e0000006077820152600080516020614617833981519152609482015260008051602061469783398151915260b48201527f793d224e6f746f2053616e73204a502220666f6e742d73697a653d223134222060d48201527f793d2235302220783d22353025222066696c6c3d2223303030303030223e000060f48201526139ef61395b6139e96139d361396e8361395561011288016f0a0ded8d2c6f290ded8c8cae4744060f60831b815260100190565b8b6137ba565b661e17ba32bc3a1f60c91b815260070190565b6000805160206146178339815191528152600080516020614697833981519152602082015260008051602061463783398151915260408201527f793d223130302220783d22353025222066696c6c3d2223303030303030223e006060820152607f0190565b690283937bb34b232b91d160b51b8152600a0190565b866137ba565b9695505050505050565b60006000805160206146178339815191528083526000805160206146978339815191528060208501526000805160206146378339815191528060408601527f793d223135302220783d22353025222066696c6c3d2223303030303030223e0060608601526902837b634b1bca4a21d160b51b607f8601528751613a83816089880160208c0161325a565b8086019050661e17ba32bc3a1f60c91b60898201528360908201528260b08201528160d08201527f793d223230302220783d22353025222066696c6c3d2223303030303030223e0060f0820152613b8961395b613b83613b6d613b0861395b613b0261010f88016b02837b634b1bcaa3cb8329d160a51b8152600c0190565b8e6137ba565b6000805160206146178339815191528152600080516020614697833981519152602082015260008051602061463783398151915260408201527f793d223235302220783d22353025222066696c6c3d2223303030303030223e006060820152607f0190565b69021b7bb32b930b3b29d160b51b8152600a0190565b896137ba565b9998505050505050505050565b60006000805160206146178339815191528083526000805160206146978339815191528060208501526000805160206146378339815191528060408601527f793d223330302220783d22353025222066696c6c3d2223303030303030223e006060860152660283934b1b29d160cd1b607f8601528851613c1d816086880160208d0161325a565b8086019050661e17ba32bc3a1f60c91b608682015283608d8201528260ad8201528160cd8201527f793d223335302220783d22353025222066696c6c3d2223303030303030223e0060ed820152613cb861395b613b83613ca5613cb2613ca5613c9f61010c88016e0283ab931b430b9b2902230ba329d1608d1b8152600f0190565b8f6137ba565b602f60f81b815260010190565b8c6137ba565b9a9950505050505050505050565b6000805160206146178339815191528152600080516020614697833981519152602082015260008051602061463783398151915260408201527f793d223430302220783d22353025222066696c6c3d2223303030303030223e00606082015269034b9a0b1ba34bb329d160b51b607f82015260008251613d4d81608985016020870161325a565b661e17ba32bc3a1f60c91b6089939091019283015250651e17b9bb339f60d11b6090820152609601919050565b60008551613d8c818460208a0161325a565b855190830190613da0818360208a0161325a565b8551910190613db381836020890161325a565b8451910190613dc681836020880161325a565b019695505050505050565b60008060008060808587031215613de757600080fd5b845193506020850151613df981613433565b6040860151606090960151949790965092505050565b683d913730b6b2911d1160b91b81528451600090613e34816009850160208a0161325a565b71111610113232b9b1b934b83a34b7b7111d1160711b6009918401918201527f496e737572616e636520706f6c696379207075726368617365642066726f6d20601b8201527f536166655a656e2c2050617920617320796f7520476f21000000000000000000603b8201526c1116101134b6b0b3b2911d101160991b60528201527f646174613a696d6167652f7376672b786d6c3b6261736536342c000000000000605f8201528551613eee816079840160208a0161325a565b7f222c202261747472696275746573223a205b7b2274726169745f74797065223a910160798101919091526e08941bdb1a58de521bdb19195c888b608a1b60998201526a044ecc2d8eaca44744460f60ab1b60a8820152613fab613f5e6139e9613f96613f6d8360b38701613955565b62089f4b60ea1b815260030190565b7f7b2274726169745f74797065223a22506f6c6963794944222c00000000000000815260190190565b68113b30b63ab2911d1160b91b815260090190565b979650505050505050565b7f7b2274726169745f74797065223a22436f766572616765416d6f756e74222c008152600068113b30b63ab2911d1160b91b80601f8401528551614001816028860160208a0161325a565b62089f4b60ea1b60289185019182018190527f7b2274726169745f74797065223a224d696e466c6f7752617465222c00000000602b830152604782018390528651614053816050850160208b0161325a565b60509201918201527f7b2274726169745f74797065223a22507572636861736554696d65222c0000006053820152607081019190915283519061409d82607983016020880161325a565b613fab60798383010162089f4b60ea1b815260030190565b7f7b2274726169745f74797065223a22416374697665222c0000000000000000008152600068113b30b63ab2911d1160b91b8060178401528551614100816020860160208a0161325a565b808401905062089f4b60ea1b8060208301527f7b2274726169745f74797065223a22416d6f756e7450616964222c0000000000602383015282603e8301528651614151816047850160208b0161325a565b60479201918201527f7b2274726169745f74797065223a2242617365416d6f756e74222c0000000000604a820152606581019190915283519061419b82606e83016020880161325a565b613fab6141b5606e8484010161227d60f01b815260020190565b615d7d60f01b815260020190565b600084516141d581846020890161325a565b8451908301906141e981836020890161325a565b84519101906141fc81836020880161325a565b0195945050505050565b7f646174613a6170706c69636174696f6e2f6a736f6e3b6261736536342c00000081526000825161423e81601d85016020870161325a565b91909101601d0192915050565b60008282101561425d5761425d613741565b500390565b600060001982141561427657614276613741565b5060010190565b60008261428c5761428c613717565b500490565b60008160001904831182151516156142ab576142ab613741565b500290565b600181815b808511156142eb5781600019048211156142d1576142d1613741565b808516156142de57918102915b93841c93908002906142b5565b509250929050565b600082614302575060016106ce565b8161430f575060006106ce565b8160018114614325576002811461432f5761434b565b60019150506106ce565b60ff84111561434057614340613741565b50506001821b6106ce565b5060208310610133831016604e8410600b841016171561436e575081810a6106ce565b61437883836142b0565b806000190482111561438c5761438c613741565b029392505050565b600061325383836142f3565b600060ff8316806143b3576143b3613717565b8060ff84160491505092915050565b600060ff821660ff84168160ff048111821515161561438c5761438c613741565b600060ff821660ff8416808210156143fd576143fd613741565b90039392505050565b60208082526032908201527f4552433732313a207472616e7366657220746f206e6f6e20455243373231526560408201527131b2b4bb32b91034b6b83632b6b2b73a32b960711b606082015260800190565b600080821280156001600160ff1b038490038513161561447a5761447a613741565b600160ff1b839003841281161561449357614493613741565b50500190565b60006001600160ff1b03818413828413808216868404861116156144bf576144bf613741565b600160ff1b60008712828116878305891216156144de576144de613741565b600087129250878205871284841616156144fa576144fa613741565b8785058712818416161561451057614510613741565b505050929093029392505050565b60008261452d5761452d613717565b600160ff1b82146000198414161561454757614547613741565b500590565b60008083128015600160ff1b85018412161561456a5761456a613741565b6001600160ff1b038401831381161561458557614585613741565b50500390565b600060ff821660ff84168060ff038211156145a8576145a8613741565b019392505050565b6001600160a01b03858116825284166020820152604081018390526080606082018190526000906139ef90830184613286565b6000602082840312156145f557600080fd5b815161325381613220565b634e487b7160e01b600052603160045260246000fdfe3c7465787420646f6d696e616e742d626173656c696e653d226d6964646c6522793d224e6f746f2053616e73204a502220666f6e742d73697a653d22323022204142434445464748494a4b4c4d4e4f505152535455565758595a6162636465666768696a6b6c6d6e6f707172737475767778797a303132333435363738392b2f20746578742d616e63686f723d226d6964646c652220666f6e742d66616d696ca2646970667358221220c638faad3695edad059249ea03cb6a0a632480bd2f8603b5c060e7c573d3fb2564736f6c634300080a0033",
  "linkReferences": {},
  "deployedLinkReferences": {}
}