{
  "_format": "hh-sol-artifact-1",
  "contractName": "StakingContract",
  "sourceName": "contracts/StakingContract.sol",
  "abi": [
    {
      "inputs": [
        {
          "internalType": "string",
          "name": "_name",
          "type": "string"
        },
        {
          "internalType": "string",
          "name": "_symbol",
          "type": "string"
        }
      ],
      "stateMutability": "nonpayable",
      "type": "constructor"
    },
    {
      "inputs": [],
      "name": "TransactionFailure",
      "type": "error"
    },
    {
      "anonymous": false,
      "inputs": [
        {
          "indexed": true,
          "internalType": "address",
          "name": "owner",
          "type": "address"
        },
        {
          "indexed": true,
          "internalType": "address",
          "name": "spender",
          "type": "address"
        },
        {
          "indexed": false,
          "internalType": "uint256",
          "name": "value",
          "type": "uint256"
        }
      ],
      "name": "Approval",
      "type": "event"
    },
    {
      "anonymous": false,
      "inputs": [
        {
          "indexed": true,
          "internalType": "address",
          "name": "previousOwner",
          "type": "address"
        },
        {
          "indexed": true,
          "internalType": "address",
          "name": "newOwner",
          "type": "address"
        }
      ],
      "name": "OwnershipTransferred",
      "type": "event"
    },
    {
      "anonymous": false,
      "inputs": [
        {
          "indexed": false,
          "internalType": "address",
          "name": "account",
          "type": "address"
        }
      ],
      "name": "Paused",
      "type": "event"
    },
    {
      "anonymous": false,
      "inputs": [
        {
          "indexed": true,
          "internalType": "address",
          "name": "_to",
          "type": "address"
        },
        {
          "indexed": false,
          "internalType": "uint256",
          "name": "_rewardTokensCount",
          "type": "uint256"
        }
      ],
      "name": "TokenTransfer",
      "type": "event"
    },
    {
      "anonymous": false,
      "inputs": [
        {
          "indexed": true,
          "internalType": "address",
          "name": "from",
          "type": "address"
        },
        {
          "indexed": true,
          "internalType": "address",
          "name": "to",
          "type": "address"
        },
        {
          "indexed": false,
          "internalType": "uint256",
          "name": "value",
          "type": "uint256"
        }
      ],
      "name": "Transfer",
      "type": "event"
    },
    {
      "anonymous": false,
      "inputs": [
        {
          "indexed": false,
          "internalType": "address",
          "name": "account",
          "type": "address"
        }
      ],
      "name": "Unpaused",
      "type": "event"
    },
    {
      "inputs": [
        {
          "internalType": "address",
          "name": "owner",
          "type": "address"
        },
        {
          "internalType": "address",
          "name": "spender",
          "type": "address"
        }
      ],
      "name": "allowance",
      "outputs": [
        {
          "internalType": "uint256",
          "name": "",
          "type": "uint256"
        }
      ],
      "stateMutability": "view",
      "type": "function"
    },
    {
      "inputs": [
        {
          "internalType": "address",
          "name": "spender",
          "type": "address"
        },
        {
          "internalType": "uint256",
          "name": "amount",
          "type": "uint256"
        }
      ],
      "name": "approve",
      "outputs": [
        {
          "internalType": "bool",
          "name": "",
          "type": "bool"
        }
      ],
      "stateMutability": "nonpayable",
      "type": "function"
    },
    {
      "inputs": [
        {
          "internalType": "address",
          "name": "account",
          "type": "address"
        }
      ],
      "name": "balanceOf",
      "outputs": [
        {
          "internalType": "uint256",
          "name": "",
          "type": "uint256"
        }
      ],
      "stateMutability": "view",
      "type": "function"
    },
    {
      "inputs": [
        {
          "internalType": "uint256",
          "name": "_tokenID",
          "type": "uint256"
        }
      ],
      "name": "claimRewardTokens",
      "outputs": [],
      "stateMutability": "nonpayable",
      "type": "function"
    },
    {
      "inputs": [],
      "name": "decimals",
      "outputs": [
        {
          "internalType": "uint8",
          "name": "",
          "type": "uint8"
        }
      ],
      "stateMutability": "view",
      "type": "function"
    },
    {
      "inputs": [
        {
          "internalType": "address",
          "name": "spender",
          "type": "address"
        },
        {
          "internalType": "uint256",
          "name": "subtractedValue",
          "type": "uint256"
        }
      ],
      "name": "decreaseAllowance",
      "outputs": [
        {
          "internalType": "bool",
          "name": "",
          "type": "bool"
        }
      ],
      "stateMutability": "nonpayable",
      "type": "function"
    },
    {
      "inputs": [
        {
          "internalType": "uint256",
          "name": "_tokenID",
          "type": "uint256"
        }
      ],
      "name": "eligibleRewardTokenCount",
      "outputs": [
        {
          "internalType": "uint256",
          "name": "_rewardTokenCounts",
          "type": "uint256"
        }
      ],
      "stateMutability": "view",
      "type": "function"
    },
    {
      "inputs": [
        {
          "internalType": "uint256",
          "name": "",
          "type": "uint256"
        }
      ],
      "name": "hasClaimedRewards",
      "outputs": [
        {
          "internalType": "bool",
          "name": "",
          "type": "bool"
        }
      ],
      "stateMutability": "view",
      "type": "function"
    },
    {
      "inputs": [
        {
          "internalType": "address",
          "name": "spender",
          "type": "address"
        },
        {
          "internalType": "uint256",
          "name": "addedValue",
          "type": "uint256"
        }
      ],
      "name": "increaseAllowance",
      "outputs": [
        {
          "internalType": "bool",
          "name": "",
          "type": "bool"
        }
      ],
      "stateMutability": "nonpayable",
      "type": "function"
    },
    {
      "inputs": [],
      "name": "name",
      "outputs": [
        {
          "internalType": "string",
          "name": "",
          "type": "string"
        }
      ],
      "stateMutability": "view",
      "type": "function"
    },
    {
      "inputs": [],
      "name": "owner",
      "outputs": [
        {
          "internalType": "address",
          "name": "",
          "type": "address"
        }
      ],
      "stateMutability": "view",
      "type": "function"
    },
    {
      "inputs": [],
      "name": "pause",
      "outputs": [],
      "stateMutability": "nonpayable",
      "type": "function"
    },
    {
      "inputs": [],
      "name": "paused",
      "outputs": [
        {
          "internalType": "bool",
          "name": "",
          "type": "bool"
        }
      ],
      "stateMutability": "view",
      "type": "function"
    },
    {
      "inputs": [],
      "name": "renounceOwnership",
      "outputs": [],
      "stateMutability": "nonpayable",
      "type": "function"
    },
    {
      "inputs": [],
      "name": "safeZen",
      "outputs": [
        {
          "internalType": "contract SafeZen",
          "name": "",
          "type": "address"
        }
      ],
      "stateMutability": "view",
      "type": "function"
    },
    {
      "inputs": [
        {
          "internalType": "address",
          "name": "_safeZenCA",
          "type": "address"
        }
      ],
      "name": "setSafeZenCA",
      "outputs": [],
      "stateMutability": "nonpayable",
      "type": "function"
    },
    {
      "inputs": [],
      "name": "symbol",
      "outputs": [
        {
          "internalType": "string",
          "name": "",
          "type": "string"
        }
      ],
      "stateMutability": "view",
      "type": "function"
    },
    {
      "inputs": [],
      "name": "totalSupply",
      "outputs": [
        {
          "internalType": "uint256",
          "name": "",
          "type": "uint256"
        }
      ],
      "stateMutability": "view",
      "type": "function"
    },
    {
      "inputs": [
        {
          "internalType": "address",
          "name": "to",
          "type": "address"
        },
        {
          "internalType": "uint256",
          "name": "amount",
          "type": "uint256"
        }
      ],
      "name": "transfer",
      "outputs": [
        {
          "internalType": "bool",
          "name": "",
          "type": "bool"
        }
      ],
      "stateMutability": "nonpayable",
      "type": "function"
    },
    {
      "inputs": [
        {
          "internalType": "address",
          "name": "from",
          "type": "address"
        },
        {
          "internalType": "address",
          "name": "to",
          "type": "address"
        },
        {
          "internalType": "uint256",
          "name": "amount",
          "type": "uint256"
        }
      ],
      "name": "transferFrom",
      "outputs": [
        {
          "internalType": "bool",
          "name": "",
          "type": "bool"
        }
      ],
      "stateMutability": "nonpayable",
      "type": "function"
    },
    {
      "inputs": [
        {
          "internalType": "address",
          "name": "newOwner",
          "type": "address"
        }
      ],
      "name": "transferOwnership",
      "outputs": [],
      "stateMutability": "nonpayable",
      "type": "function"
    },
    {
      "inputs": [],
      "name": "unpause",
      "outputs": [],
      "stateMutability": "nonpayable",
      "type": "function"
    }
  ],
  "bytecode": "0x60806040523480156200001157600080fd5b506040516200140b3803806200140b83398101604081905262000034916200024d565b8151829082906200004d906003906020850190620000da565b50805162000063906004906020840190620000da565b50506005805460ff19169055506001600655620000803362000088565b5050620002f4565b600780546001600160a01b038381166001600160a01b0319831681179093556040519116919082907f8be0079c531659141344cd1fd0a4f28419497f9722a3daafe3b4186f6b6457e090600090a35050565b828054620000e890620002b7565b90600052602060002090601f0160209004810192826200010c576000855562000157565b82601f106200012757805160ff191683800117855562000157565b8280016001018555821562000157579182015b82811115620001575782518255916020019190600101906200013a565b506200016592915062000169565b5090565b5b808211156200016557600081556001016200016a565b634e487b7160e01b600052604160045260246000fd5b600082601f830112620001a857600080fd5b81516001600160401b0380821115620001c557620001c562000180565b604051601f8301601f19908116603f01168101908282118183101715620001f057620001f062000180565b816040528381526020925086838588010111156200020d57600080fd5b600091505b8382101562000231578582018301518183018401529082019062000212565b83821115620002435760008385830101525b9695505050505050565b600080604083850312156200026157600080fd5b82516001600160401b03808211156200027957600080fd5b620002878683870162000196565b935060208501519150808211156200029e57600080fd5b50620002ad8582860162000196565b9150509250929050565b600181811c90821680620002cc57607f821691505b60208210811415620002ee57634e487b7160e01b600052602260045260246000fd5b50919050565b61110780620003046000396000f3fe608060405234801561001057600080fd5b50600436106101425760003560e01c80638456cb59116100b8578063af0c776c1161007c578063af0c776c14610293578063b4556904146102a6578063bb6783d3146102b9578063c5307fed146102cc578063dd62ed3e146102df578063f2fde38b146102f257600080fd5b80638456cb59146102385780638da5cb5b1461024057806395d89b4114610265578063a457c2d71461026d578063a9059cbb1461028057600080fd5b8063395093511161010a57806339509351146101bc5780633f4ba83a146101cf57806355f5576e146101d95780635c975abb146101fc57806370a0823114610207578063715018a61461023057600080fd5b806306fdde0314610147578063095ea7b31461016557806318160ddd1461018857806323b872dd1461019a578063313ce567146101ad575b600080fd5b61014f610305565b60405161015c9190610e54565b60405180910390f35b610178610173366004610ebe565b610397565b604051901515815260200161015c565b6002545b60405190815260200161015c565b6101786101a8366004610eea565b6103af565b6040516012815260200161015c565b6101786101ca366004610ebe565b6103d3565b6101d76103f5565b005b6101786101e7366004610f2b565b60096020526000908152604090205460ff1681565b60055460ff16610178565b61018c610215366004610f44565b6001600160a01b031660009081526020819052604090205490565b6101d7610432565b6101d7610466565b6007546001600160a01b03165b6040516001600160a01b03909116815260200161015c565b61014f610498565b61017861027b366004610ebe565b6104a7565b61017861028e366004610ebe565b610522565b60085461024d906001600160a01b031681565b61018c6102b4366004610f2b565b610530565b6101d76102c7366004610f44565b610643565b6101d76102da366004610f2b565b61068f565b61018c6102ed366004610f68565b6107e3565b6101d7610300366004610f44565b61080e565b60606003805461031490610fa1565b80601f016020809104026020016040519081016040528092919081815260200182805461034090610fa1565b801561038d5780601f106103625761010080835404028352916020019161038d565b820191906000526020600020905b81548152906001019060200180831161037057829003601f168201915b5050505050905090565b6000336103a58185856108a9565b5060019392505050565b6000336103bd8582856109cd565b6103c8858585610a47565b506001949350505050565b6000336103a58185856103e683836107e3565b6103f09190610ff2565b6108a9565b6007546001600160a01b031633146104285760405162461bcd60e51b815260040161041f9061100a565b60405180910390fd5b610430610c15565b565b6007546001600160a01b0316331461045c5760405162461bcd60e51b815260040161041f9061100a565b6104306000610ca8565b6007546001600160a01b031633146104905760405162461bcd60e51b815260040161041f9061100a565b610430610cfa565b60606004805461031490610fa1565b600033816104b582866107e3565b9050838110156105155760405162461bcd60e51b815260206004820152602560248201527f45524332303a2064656372656173656420616c6c6f77616e63652062656c6f77604482015264207a65726f60d81b606482015260840161041f565b6103c882868684036108a9565b6000336103a5818585610a47565b6008546040516347d7539d60e11b8152600481018390526000918291829182916001600160a01b0390911690638faea73a90602401608060405180830381865afa158015610582573d6000803e3d6000fd5b505050506040513d601f19601f820116820180604052508101906105a6919061103f565b935093509350508262093a806105bc9190610ff2565b4210156105e15760646105d083600a611090565b6105da91906110af565b9350610627565b6105ee8362278d00610ff2565b4210801561060757506106048362093a80610ff2565b42115b156106195760646105d0836014611090565b6106246002836110af565b93505b801561063b576106386002856110af565b93505b505050919050565b6007546001600160a01b0316331461066d5760405162461bcd60e51b815260040161041f9061100a565b600880546001600160a01b0319166001600160a01b0392909216919091179055565b6008546040516347d7539d60e11b8152600481018390526000916001600160a01b031690638faea73a90602401608060405180830381865afa1580156106d9573d6000803e3d6000fd5b505050506040513d601f19601f820116820180604052508101906106fd919061103f565b5091925050506001600160a01b038116331461071857600080fd5b60008281526009602052604090205460ff16156107695760405162461bcd60e51b815260206004820152600f60248201526e105314915051164810d31052535151608a1b604482015260640161041f565b600061077483610530565b90506107803382610d75565b60008381526009602052604090819020805460ff19166001179055516001600160a01b038316907f1d72140a7ccdb496bef50918d2598dd7edefb514f70e6d4beb528cbd16c80b7d906107d69084815260200190565b60405180910390a2505050565b6001600160a01b03918216600090815260016020908152604080832093909416825291909152205490565b6007546001600160a01b031633146108385760405162461bcd60e51b815260040161041f9061100a565b6001600160a01b03811661089d5760405162461bcd60e51b815260206004820152602660248201527f4f776e61626c653a206e6577206f776e657220697320746865207a65726f206160448201526564647265737360d01b606482015260840161041f565b6108a681610ca8565b50565b6001600160a01b03831661090b5760405162461bcd60e51b8152602060048201526024808201527f45524332303a20617070726f76652066726f6d20746865207a65726f206164646044820152637265737360e01b606482015260840161041f565b6001600160a01b03821661096c5760405162461bcd60e51b815260206004820152602260248201527f45524332303a20617070726f766520746f20746865207a65726f206164647265604482015261737360f01b606482015260840161041f565b6001600160a01b0383811660008181526001602090815260408083209487168084529482529182902085905590518481527f8c5be1e5ebec7d5bd14f71427d1e84f3dd0314c0f7b2291e5b200ac8c7c3b925910160405180910390a3505050565b60006109d984846107e3565b90506000198114610a415781811015610a345760405162461bcd60e51b815260206004820152601d60248201527f45524332303a20696e73756666696369656e7420616c6c6f77616e6365000000604482015260640161041f565b610a4184848484036108a9565b50505050565b6001600160a01b038316610aab5760405162461bcd60e51b815260206004820152602560248201527f45524332303a207472616e736665722066726f6d20746865207a65726f206164604482015264647265737360d81b606482015260840161041f565b6001600160a01b038216610b0d5760405162461bcd60e51b815260206004820152602360248201527f45524332303a207472616e7366657220746f20746865207a65726f206164647260448201526265737360e81b606482015260840161041f565b6001600160a01b03831660009081526020819052604090205481811015610b855760405162461bcd60e51b815260206004820152602660248201527f45524332303a207472616e7366657220616d6f756e7420657863656564732062604482015265616c616e636560d01b606482015260840161041f565b6001600160a01b03808516600090815260208190526040808220858503905591851681529081208054849290610bbc908490610ff2565b92505081905550826001600160a01b0316846001600160a01b03167fddf252ad1be2c89b69c2b068fc378daa952ba7f163c4a11628f55a4df523b3ef84604051610c0891815260200190565b60405180910390a3610a41565b60055460ff16610c5e5760405162461bcd60e51b815260206004820152601460248201527314185d5cd8589b194e881b9bdd081c185d5cd95960621b604482015260640161041f565b6005805460ff191690557f5db9ee0a495bf2e6ff9c91a7834c1ba4fdd244a5e8aa4e537bd38aeae4b073aa335b6040516001600160a01b03909116815260200160405180910390a1565b600780546001600160a01b038381166001600160a01b0319831681179093556040519116919082907f8be0079c531659141344cd1fd0a4f28419497f9722a3daafe3b4186f6b6457e090600090a35050565b60055460ff1615610d405760405162461bcd60e51b815260206004820152601060248201526f14185d5cd8589b194e881c185d5cd95960821b604482015260640161041f565b6005805460ff191660011790557f62e78cea01bee320cd4e420270b5ea74000d11b0c9f74754ebdbfc544b05a258610c8b3390565b6001600160a01b038216610dcb5760405162461bcd60e51b815260206004820152601f60248201527f45524332303a206d696e7420746f20746865207a65726f206164647265737300604482015260640161041f565b8060026000828254610ddd9190610ff2565b90915550506001600160a01b03821660009081526020819052604081208054839290610e0a908490610ff2565b90915550506040518181526001600160a01b038316906000907fddf252ad1be2c89b69c2b068fc378daa952ba7f163c4a11628f55a4df523b3ef9060200160405180910390a35050565b600060208083528351808285015260005b81811015610e8157858101830151858201604001528201610e65565b81811115610e93576000604083870101525b50601f01601f1916929092016040019392505050565b6001600160a01b03811681146108a657600080fd5b60008060408385031215610ed157600080fd5b8235610edc81610ea9565b946020939093013593505050565b600080600060608486031215610eff57600080fd5b8335610f0a81610ea9565b92506020840135610f1a81610ea9565b929592945050506040919091013590565b600060208284031215610f3d57600080fd5b5035919050565b600060208284031215610f5657600080fd5b8135610f6181610ea9565b9392505050565b60008060408385031215610f7b57600080fd5b8235610f8681610ea9565b91506020830135610f9681610ea9565b809150509250929050565b600181811c90821680610fb557607f821691505b60208210811415610fd657634e487b7160e01b600052602260045260246000fd5b50919050565b634e487b7160e01b600052601160045260246000fd5b6000821982111561100557611005610fdc565b500190565b6020808252818101527f4f776e61626c653a2063616c6c6572206973206e6f7420746865206f776e6572604082015260600190565b6000806000806080858703121561105557600080fd5b845161106081610ea9565b8094505060208501519250604085015191506060850151801515811461108557600080fd5b939692955090935050565b60008160001904831182151516156110aa576110aa610fdc565b500290565b6000826110cc57634e487b7160e01b600052601260045260246000fd5b50049056fea264697066735822122066332a455d734ab7c1ad4018937863839bd5154307175935dfe90fc146281a4864736f6c634300080a0033",
  "linkReferences": {},
  "deployedLinkReferences": {}
}