{
  "_format": "hh-sol-artifact-1",
  "contractName": "BeatBots",
  "sourceName": "contracts/BeatBots.sol",
  "abi": [
    {
      "inputs": [
        {
          "internalType": "string",
          "name": "name_",
          "type": "string"
        },
        {
          "internalType": "string",
          "name": "symbol_",
          "type": "string"
        },
        {
          "internalType": "string",
          "name": "_initBaseURI",
          "type": "string"
        },
        {
          "internalType": "address",
          "name": "_newOwner",
          "type": "address"
        },
        {
          "internalType": "address",
          "name": "_signerAddressSingle",
          "type": "address"
        },
        {
          "internalType": "address",
          "name": "_signerAddressDouble",
          "type": "address"
        },
        {
          "internalType": "address",
          "name": "_treasury",
          "type": "address"
        }
      ],
      "stateMutability": "nonpayable",
      "type": "constructor"
    },
    {
      "inputs": [],
      "name": "ApprovalCallerNotOwnerNorApproved",
      "type": "error"
    },
    {
      "inputs": [],
      "name": "ApprovalQueryForNonexistentToken",
      "type": "error"
    },
    {
      "inputs": [],
      "name": "ApprovalToCurrentOwner",
      "type": "error"
    },
    {
      "inputs": [],
      "name": "ApproveToCaller",
      "type": "error"
    },
    {
      "inputs": [],
      "name": "BalanceQueryForZeroAddress",
      "type": "error"
    },
    {
      "inputs": [],
      "name": "MintToZeroAddress",
      "type": "error"
    },
    {
      "inputs": [],
      "name": "MintZeroQuantity",
      "type": "error"
    },
    {
      "inputs": [],
      "name": "OwnerIndexOutOfBounds",
      "type": "error"
    },
    {
      "inputs": [],
      "name": "OwnerQueryForNonexistentToken",
      "type": "error"
    },
    {
      "inputs": [],
      "name": "TokenIndexOutOfBounds",
      "type": "error"
    },
    {
      "inputs": [],
      "name": "TransferCallerNotOwnerNorApproved",
      "type": "error"
    },
    {
      "inputs": [],
      "name": "TransferFromIncorrectOwner",
      "type": "error"
    },
    {
      "inputs": [],
      "name": "TransferToNonERC721ReceiverImplementer",
      "type": "error"
    },
    {
      "inputs": [],
      "name": "TransferToZeroAddress",
      "type": "error"
    },
    {
      "inputs": [],
      "name": "URIQueryForNonexistentToken",
      "type": "error"
    },
    {
      "anonymous": false,
      "inputs": [
        {
          "indexed": true,
          "internalType": "address",
          "name": "owner",
          "type": "address"
        },
        {
          "indexed": true,
          "internalType": "address",
          "name": "approved",
          "type": "address"
        },
        {
          "indexed": true,
          "internalType": "uint256",
          "name": "tokenId",
          "type": "uint256"
        }
      ],
      "name": "Approval",
      "type": "event"
    },
    {
      "anonymous": false,
      "inputs": [
        {
          "indexed": true,
          "internalType": "address",
          "name": "owner",
          "type": "address"
        },
        {
          "indexed": true,
          "internalType": "address",
          "name": "operator",
          "type": "address"
        },
        {
          "indexed": false,
          "internalType": "bool",
          "name": "approved",
          "type": "bool"
        }
      ],
      "name": "ApprovalForAll",
      "type": "event"
    },
    {
      "anonymous": false,
      "inputs": [
        {
          "indexed": false,
          "internalType": "uint256",
          "name": "amount",
          "type": "uint256"
        }
      ],
      "name": "DevMint",
      "type": "event"
    },
    {
      "anonymous": false,
      "inputs": [
        {
          "indexed": true,
          "internalType": "address",
          "name": "previousOwner",
          "type": "address"
        },
        {
          "indexed": true,
          "internalType": "address",
          "name": "newOwner",
          "type": "address"
        }
      ],
      "name": "OwnershipTransferred",
      "type": "event"
    },
    {
      "anonymous": false,
      "inputs": [
        {
          "indexed": false,
          "internalType": "address",
          "name": "account",
          "type": "address"
        }
      ],
      "name": "Paused",
      "type": "event"
    },
    {
      "anonymous": false,
      "inputs": [
        {
          "indexed": true,
          "internalType": "address",
          "name": "to",
          "type": "address"
        },
        {
          "indexed": false,
          "internalType": "uint256",
          "name": "amount",
          "type": "uint256"
        }
      ],
      "name": "PrivateMint",
      "type": "event"
    },
    {
      "anonymous": false,
      "inputs": [
        {
          "indexed": true,
          "internalType": "address",
          "name": "to",
          "type": "address"
        },
        {
          "indexed": false,
          "internalType": "uint256",
          "name": "amount",
          "type": "uint256"
        }
      ],
      "name": "PublicMint",
      "type": "event"
    },
    {
      "anonymous": false,
      "inputs": [
        {
          "indexed": false,
          "internalType": "uint256",
          "name": "timestamp",
          "type": "uint256"
        }
      ],
      "name": "Revealed",
      "type": "event"
    },
    {
      "anonymous": false,
      "inputs": [
        {
          "indexed": true,
          "internalType": "address",
          "name": "from",
          "type": "address"
        },
        {
          "indexed": true,
          "internalType": "address",
          "name": "to",
          "type": "address"
        },
        {
          "indexed": true,
          "internalType": "uint256",
          "name": "tokenId",
          "type": "uint256"
        }
      ],
      "name": "Transfer",
      "type": "event"
    },
    {
      "anonymous": false,
      "inputs": [
        {
          "indexed": false,
          "internalType": "address",
          "name": "account",
          "type": "address"
        }
      ],
      "name": "Unpaused",
      "type": "event"
    },
    {
      "anonymous": false,
      "inputs": [
        {
          "indexed": false,
          "internalType": "uint256",
          "name": "amountWithdrawn",
          "type": "uint256"
        }
      ],
      "name": "WithdrawETH",
      "type": "event"
    },
    {
      "inputs": [],
      "name": "MAX_NFT_PER_WALLET",
      "outputs": [
        {
          "internalType": "uint256",
          "name": "",
          "type": "uint256"
        }
      ],
      "stateMutability": "view",
      "type": "function"
    },
    {
      "inputs": [],
      "name": "MAX_SUPPLY",
      "outputs": [
        {
          "internalType": "uint256",
          "name": "",
          "type": "uint256"
        }
      ],
      "stateMutability": "view",
      "type": "function"
    },
    {
      "inputs": [],
      "name": "NFT_PRICE",
      "outputs": [
        {
          "internalType": "uint256",
          "name": "",
          "type": "uint256"
        }
      ],
      "stateMutability": "view",
      "type": "function"
    },
    {
      "inputs": [
        {
          "internalType": "address",
          "name": "to",
          "type": "address"
        },
        {
          "internalType": "uint256",
          "name": "tokenId",
          "type": "uint256"
        }
      ],
      "name": "approve",
      "outputs": [],
      "stateMutability": "nonpayable",
      "type": "function"
    },
    {
      "inputs": [
        {
          "internalType": "address",
          "name": "owner",
          "type": "address"
        }
      ],
      "name": "balanceOf",
      "outputs": [
        {
          "internalType": "uint256",
          "name": "",
          "type": "uint256"
        }
      ],
      "stateMutability": "view",
      "type": "function"
    },
    {
      "inputs": [
        {
          "internalType": "uint256",
          "name": "_mintAmount",
          "type": "uint256"
        }
      ],
      "name": "devMint",
      "outputs": [],
      "stateMutability": "nonpayable",
      "type": "function"
    },
    {
      "inputs": [
        {
          "internalType": "uint256",
          "name": "tokenId",
          "type": "uint256"
        }
      ],
      "name": "getApproved",
      "outputs": [
        {
          "internalType": "address",
          "name": "",
          "type": "address"
        }
      ],
      "stateMutability": "view",
      "type": "function"
    },
    {
      "inputs": [
        {
          "internalType": "address",
          "name": "owner",
          "type": "address"
        },
        {
          "internalType": "address",
          "name": "operator",
          "type": "address"
        }
      ],
      "name": "isApprovedForAll",
      "outputs": [
        {
          "internalType": "bool",
          "name": "",
          "type": "bool"
        }
      ],
      "stateMutability": "view",
      "type": "function"
    },
    {
      "inputs": [],
      "name": "isPrivateSaleOpen",
      "outputs": [
        {
          "internalType": "bool",
          "name": "",
          "type": "bool"
        }
      ],
      "stateMutability": "view",
      "type": "function"
    },
    {
      "inputs": [],
      "name": "isPublicSaleOpen",
      "outputs": [
        {
          "internalType": "bool",
          "name": "",
          "type": "bool"
        }
      ],
      "stateMutability": "view",
      "type": "function"
    },
    {
      "inputs": [],
      "name": "name",
      "outputs": [
        {
          "internalType": "string",
          "name": "",
          "type": "string"
        }
      ],
      "stateMutability": "view",
      "type": "function"
    },
    {
      "inputs": [
        {
          "internalType": "address",
          "name": "",
          "type": "address"
        }
      ],
      "name": "nftMintCount",
      "outputs": [
        {
          "internalType": "uint256",
          "name": "",
          "type": "uint256"
        }
      ],
      "stateMutability": "view",
      "type": "function"
    },
    {
      "inputs": [],
      "name": "owner",
      "outputs": [
        {
          "internalType": "address",
          "name": "",
          "type": "address"
        }
      ],
      "stateMutability": "view",
      "type": "function"
    },
    {
      "inputs": [
        {
          "internalType": "uint256",
          "name": "tokenId",
          "type": "uint256"
        }
      ],
      "name": "ownerOf",
      "outputs": [
        {
          "internalType": "address",
          "name": "",
          "type": "address"
        }
      ],
      "stateMutability": "view",
      "type": "function"
    },
    {
      "inputs": [],
      "name": "pause",
      "outputs": [],
      "stateMutability": "nonpayable",
      "type": "function"
    },
    {
      "inputs": [],
      "name": "paused",
      "outputs": [
        {
          "internalType": "bool",
          "name": "",
          "type": "bool"
        }
      ],
      "stateMutability": "view",
      "type": "function"
    },
    {
      "inputs": [],
      "name": "presaleStartTime",
      "outputs": [
        {
          "internalType": "uint256",
          "name": "",
          "type": "uint256"
        }
      ],
      "stateMutability": "view",
      "type": "function"
    },
    {
      "inputs": [],
      "name": "presaleWindow",
      "outputs": [
        {
          "internalType": "uint256",
          "name": "",
          "type": "uint256"
        }
      ],
      "stateMutability": "view",
      "type": "function"
    },
    {
      "inputs": [
        {
          "internalType": "uint256",
          "name": "_mintAmount",
          "type": "uint256"
        },
        {
          "internalType": "bytes",
          "name": "nonce",
          "type": "bytes"
        },
        {
          "internalType": "bytes",
          "name": "signature",
          "type": "bytes"
        }
      ],
      "name": "privateMintDouble",
      "outputs": [],
      "stateMutability": "payable",
      "type": "function"
    },
    {
      "inputs": [
        {
          "internalType": "bytes",
          "name": "nonce",
          "type": "bytes"
        },
        {
          "internalType": "bytes",
          "name": "signature",
          "type": "bytes"
        }
      ],
      "name": "privateMintSingle",
      "outputs": [],
      "stateMutability": "payable",
      "type": "function"
    },
    {
      "inputs": [],
      "name": "privateSaleMaxDouble",
      "outputs": [
        {
          "internalType": "uint256",
          "name": "",
          "type": "uint256"
        }
      ],
      "stateMutability": "view",
      "type": "function"
    },
    {
      "inputs": [],
      "name": "privateSaleMaxSingle",
      "outputs": [
        {
          "internalType": "uint256",
          "name": "",
          "type": "uint256"
        }
      ],
      "stateMutability": "view",
      "type": "function"
    },
    {
      "inputs": [
        {
          "internalType": "uint256",
          "name": "_mintAmount",
          "type": "uint256"
        }
      ],
      "name": "publicMint",
      "outputs": [],
      "stateMutability": "payable",
      "type": "function"
    },
    {
      "inputs": [],
      "name": "publicSaleStartTime",
      "outputs": [
        {
          "internalType": "uint256",
          "name": "",
          "type": "uint256"
        }
      ],
      "stateMutability": "view",
      "type": "function"
    },
    {
      "inputs": [],
      "name": "renounceOwnership",
      "outputs": [],
      "stateMutability": "nonpayable",
      "type": "function"
    },
    {
      "inputs": [
        {
          "internalType": "bool",
          "name": "revealed",
          "type": "bool"
        }
      ],
      "name": "reveal",
      "outputs": [],
      "stateMutability": "nonpayable",
      "type": "function"
    },
    {
      "inputs": [
        {
          "internalType": "address",
          "name": "from",
          "type": "address"
        },
        {
          "internalType": "address",
          "name": "to",
          "type": "address"
        },
        {
          "internalType": "uint256",
          "name": "tokenId",
          "type": "uint256"
        }
      ],
      "name": "safeTransferFrom",
      "outputs": [],
      "stateMutability": "nonpayable",
      "type": "function"
    },
    {
      "inputs": [
        {
          "internalType": "address",
          "name": "from",
          "type": "address"
        },
        {
          "internalType": "address",
          "name": "to",
          "type": "address"
        },
        {
          "internalType": "uint256",
          "name": "tokenId",
          "type": "uint256"
        },
        {
          "internalType": "bytes",
          "name": "_data",
          "type": "bytes"
        }
      ],
      "name": "safeTransferFrom",
      "outputs": [],
      "stateMutability": "nonpayable",
      "type": "function"
    },
    {
      "inputs": [
        {
          "internalType": "address",
          "name": "operator",
          "type": "address"
        },
        {
          "internalType": "bool",
          "name": "approved",
          "type": "bool"
        }
      ],
      "name": "setApprovalForAll",
      "outputs": [],
      "stateMutability": "nonpayable",
      "type": "function"
    },
    {
      "inputs": [
        {
          "internalType": "string",
          "name": "_newBaseURI",
          "type": "string"
        }
      ],
      "name": "setBaseURI",
      "outputs": [],
      "stateMutability": "nonpayable",
      "type": "function"
    },
    {
      "inputs": [
        {
          "internalType": "uint256",
          "name": "_maxSupply",
          "type": "uint256"
        }
      ],
      "name": "setMaxSupply",
      "outputs": [],
      "stateMutability": "nonpayable",
      "type": "function"
    },
    {
      "inputs": [
        {
          "internalType": "string",
          "name": "newUnrevealedURI",
          "type": "string"
        }
      ],
      "name": "setNotRevealedURI",
      "outputs": [],
      "stateMutability": "nonpayable",
      "type": "function"
    },
    {
      "inputs": [
        {
          "internalType": "uint256",
          "name": "_presaleStartTime",
          "type": "uint256"
        }
      ],
      "name": "setPresaleTiming",
      "outputs": [],
      "stateMutability": "nonpayable",
      "type": "function"
    },
    {
      "inputs": [
        {
          "internalType": "uint256",
          "name": "_presaleWindow",
          "type": "uint256"
        }
      ],
      "name": "setPresaleWindow",
      "outputs": [],
      "stateMutability": "nonpayable",
      "type": "function"
    },
    {
      "inputs": [
        {
          "internalType": "uint256",
          "name": "_publicSaleStartTime",
          "type": "uint256"
        }
      ],
      "name": "setPublicSaleTiming",
      "outputs": [],
      "stateMutability": "nonpayable",
      "type": "function"
    },
    {
      "inputs": [
        {
          "internalType": "address",
          "name": "signer",
          "type": "address"
        }
      ],
      "name": "setSignerAddressDouble",
      "outputs": [],
      "stateMutability": "nonpayable",
      "type": "function"
    },
    {
      "inputs": [
        {
          "internalType": "address",
          "name": "signer",
          "type": "address"
        }
      ],
      "name": "setSignerAddressSingle",
      "outputs": [],
      "stateMutability": "nonpayable",
      "type": "function"
    },
    {
      "inputs": [
        {
          "internalType": "address",
          "name": "_treasury",
          "type": "address"
        }
      ],
      "name": "setTreasury",
      "outputs": [],
      "stateMutability": "nonpayable",
      "type": "function"
    },
    {
      "inputs": [
        {
          "internalType": "bytes4",
          "name": "interfaceId",
          "type": "bytes4"
        }
      ],
      "name": "supportsInterface",
      "outputs": [
        {
          "internalType": "bool",
          "name": "",
          "type": "bool"
        }
      ],
      "stateMutability": "view",
      "type": "function"
    },
    {
      "inputs": [],
      "name": "symbol",
      "outputs": [
        {
          "internalType": "string",
          "name": "",
          "type": "string"
        }
      ],
      "stateMutability": "view",
      "type": "function"
    },
    {
      "inputs": [
        {
          "internalType": "uint256",
          "name": "index",
          "type": "uint256"
        }
      ],
      "name": "tokenByIndex",
      "outputs": [
        {
          "internalType": "uint256",
          "name": "",
          "type": "uint256"
        }
      ],
      "stateMutability": "view",
      "type": "function"
    },
    {
      "inputs": [
        {
          "internalType": "address",
          "name": "owner",
          "type": "address"
        },
        {
          "internalType": "uint256",
          "name": "index",
          "type": "uint256"
        }
      ],
      "name": "tokenOfOwnerByIndex",
      "outputs": [
        {
          "internalType": "uint256",
          "name": "",
          "type": "uint256"
        }
      ],
      "stateMutability": "view",
      "type": "function"
    },
    {
      "inputs": [
        {
          "internalType": "uint256",
          "name": "tokenId",
          "type": "uint256"
        }
      ],
      "name": "tokenURI",
      "outputs": [
        {
          "internalType": "string",
          "name": "",
          "type": "string"
        }
      ],
      "stateMutability": "view",
      "type": "function"
    },
    {
      "inputs": [],
      "name": "totalSupply",
      "outputs": [
        {
          "internalType": "uint256",
          "name": "",
          "type": "uint256"
        }
      ],
      "stateMutability": "view",
      "type": "function"
    },
    {
      "inputs": [
        {
          "internalType": "address",
          "name": "from",
          "type": "address"
        },
        {
          "internalType": "address",
          "name": "to",
          "type": "address"
        },
        {
          "internalType": "uint256",
          "name": "tokenId",
          "type": "uint256"
        }
      ],
      "name": "transferFrom",
      "outputs": [],
      "stateMutability": "nonpayable",
      "type": "function"
    },
    {
      "inputs": [
        {
          "internalType": "address",
          "name": "newOwner",
          "type": "address"
        }
      ],
      "name": "transferOwnership",
      "outputs": [],
      "stateMutability": "nonpayable",
      "type": "function"
    },
    {
      "inputs": [],
      "name": "unpause",
      "outputs": [],
      "stateMutability": "nonpayable",
      "type": "function"
    },
    {
      "inputs": [],
      "name": "withdrawToTreasury",
      "outputs": [],
      "stateMutability": "nonpayable",
      "type": "function"
    }
  ],
  "bytecode": "0x6080604052610d05600c55670214e8348c4f0000600d556002600e556001600f55600260105561708060115563627bc16060125563627c31e06013553480156200004857600080fd5b506040516200369c3803806200369c8339810160408190526200006b9162000443565b86518790879062000084906001906020850190620002b3565b5080516200009a906002906020840190620002b3565b505050620000b7620000b16200013560201b60201c565b62000139565b6007805460ff60a01b19169055600080546001600160801b0319166001179055620000e2856200018b565b620000ed84620001f3565b601480546001600160a01b039485166001600160a01b0319918216179091556015805493851693821693909317909255600b8054919093169116179055506200055c92505050565b3390565b600780546001600160a01b038381166001600160a01b0319831681179093556040519116919082907f8be0079c531659141344cd1fd0a4f28419497f9722a3daafe3b4186f6b6457e090600090a35050565b6007546001600160a01b03163314620001da5760405162461bcd60e51b815260206004820181905260248201526000805160206200367c83398151915260448201526064015b60405180910390fd5b8051620001ef90600a906020840190620002b3565b5050565b6007546001600160a01b031633146200023e5760405162461bcd60e51b815260206004820181905260248201526000805160206200367c8339815191526044820152606401620001d1565b6001600160a01b038116620002a55760405162461bcd60e51b815260206004820152602660248201527f4f776e61626c653a206e6577206f776e657220697320746865207a65726f206160448201526564647265737360d01b6064820152608401620001d1565b620002b08162000139565b50565b828054620002c1906200051f565b90600052602060002090601f016020900481019282620002e5576000855562000330565b82601f106200030057805160ff191683800117855562000330565b8280016001018555821562000330579182015b828111156200033057825182559160200191906001019062000313565b506200033e92915062000342565b5090565b5b808211156200033e576000815560010162000343565b634e487b7160e01b600052604160045260246000fd5b600082601f8301126200038157600080fd5b81516001600160401b03808211156200039e576200039e62000359565b604051601f8301601f19908116603f01168101908282118183101715620003c957620003c962000359565b81604052838152602092508683858801011115620003e657600080fd5b600091505b838210156200040a5785820183015181830184015290820190620003eb565b838211156200041c5760008385830101525b9695505050505050565b80516001600160a01b03811681146200043e57600080fd5b919050565b600080600080600080600060e0888a0312156200045f57600080fd5b87516001600160401b03808211156200047757600080fd5b620004858b838c016200036f565b985060208a01519150808211156200049c57600080fd5b620004aa8b838c016200036f565b975060408a0151915080821115620004c157600080fd5b50620004d08a828b016200036f565b955050620004e16060890162000426565b9350620004f16080890162000426565b92506200050160a0890162000426565b91506200051160c0890162000426565b905092959891949750929550565b600181811c908216806200053457607f821691505b602082108114156200055657634e487b7160e01b600052602260045260246000fd5b50919050565b613110806200056c6000396000f3fe6080604052600436106102925760003560e01c8063676dd5631161015a578063a82524b2116100c1578063e0d0e3731161007a578063e0d0e3731461076b578063e985e9c514610781578063f0f44260146107ca578063f2c4ce1e146107ea578063f2fde38b1461080a578063fa3f75751461082a57600080fd5b8063a82524b2146106c9578063b88d4fde146106df578063c87b56dd146106ff578063ce8b680c1461071f578063d129c30d14610735578063d7b1b2161461075557600080fd5b80638456cb59116101135780638456cb59146106215780638da5cb5b14610636578063940cd05b1461065457806395d89b41146106745780639ad408cb14610689578063a22cb465146106a957600080fd5b8063676dd5631461058b5780636bb7b1d9146105a15780636f8b44b0146105b757806370a08231146105d7578063715018a6146105f75780637e80c1861461060c57600080fd5b806333ce4721116101fe5780634cd3767c116101b75780634cd3767c146104cc5780634f6ccce7146104ec57806355f804b31461050c5780635c975abb1461052c57806361eb6ff71461054b5780636352211e1461056b57600080fd5b806333ce47211461041757806336e487f81461042a578063375a069a1461044a5780633965ca511461046a5780633f4ba83a1461049757806342842e0e146104ac57600080fd5b80631a6949e3116102505780631a6949e314610380578063231d8e3c1461039857806323b872dd146103ae5780632db11544146103ce5780632f745c59146103e157806332cb6b0c1461040157600080fd5b8062f3be3c1461029757806301ffc9a7146102c157806306fdde03146102e1578063081812fc14610303578063095ea7b31461033b57806318160ddd1461035d575b600080fd5b3480156102a357600080fd5b506102ac61083d565b60405190151581526020015b60405180910390f35b3480156102cd57600080fd5b506102ac6102dc366004612991565b610864565b3480156102ed57600080fd5b506102f66108d1565b6040516102b89190612a0d565b34801561030f57600080fd5b5061032361031e366004612a20565b610963565b6040516001600160a01b0390911681526020016102b8565b34801561034757600080fd5b5061035b610356366004612a55565b6109a7565b005b34801561036957600080fd5b50610372610a35565b6040519081526020016102b8565b34801561038c57600080fd5b506013544210156102ac565b3480156103a457600080fd5b5061037260105481565b3480156103ba57600080fd5b5061035b6103c9366004612a7f565b610a58565b61035b6103dc366004612a20565b610a63565b3480156103ed57600080fd5b506103726103fc366004612a55565b610ca6565b34801561040d57600080fd5b50610372600c5481565b61035b610425366004612b66565b610da2565b34801561043657600080fd5b5061035b610445366004612a20565b61101b565b34801561045657600080fd5b5061035b610465366004612a20565b61104a565b34801561047657600080fd5b50610372610485366004612bc9565b60166020526000908152604090205481565b3480156104a357600080fd5b5061035b61114c565b3480156104b857600080fd5b5061035b6104c7366004612a7f565b611180565b3480156104d857600080fd5b5061035b6104e7366004612a20565b61119b565b3480156104f857600080fd5b50610372610507366004612a20565b6111ca565b34801561051857600080fd5b5061035b610527366004612be4565b611274565b34801561053857600080fd5b50600754600160a01b900460ff166102ac565b34801561055757600080fd5b5061035b610566366004612bc9565b6112b5565b34801561057757600080fd5b50610323610586366004612a20565b611301565b34801561059757600080fd5b50610372600d5481565b3480156105ad57600080fd5b5061037260135481565b3480156105c357600080fd5b5061035b6105d2366004612a20565b611313565b3480156105e357600080fd5b506103726105f2366004612bc9565b6113a8565b34801561060357600080fd5b5061035b6113f6565b34801561061857600080fd5b5061035b61142a565b34801561062d57600080fd5b5061035b611527565b34801561064257600080fd5b506007546001600160a01b0316610323565b34801561066057600080fd5b5061035b61066f366004612c3c565b611559565b34801561068057600080fd5b506102f66115c1565b34801561069557600080fd5b5061035b6106a4366004612bc9565b6115d0565b3480156106b557600080fd5b5061035b6106c4366004612c57565b61161c565b3480156106d557600080fd5b5061037260125481565b3480156106eb57600080fd5b5061035b6106fa366004612c8a565b6116b2565b34801561070b57600080fd5b506102f661071a366004612a20565b6116ec565b34801561072b57600080fd5b5061037260115481565b34801561074157600080fd5b5061035b610750366004612a20565b61180b565b34801561076157600080fd5b50610372600e5481565b34801561077757600080fd5b50610372600f5481565b34801561078d57600080fd5b506102ac61079c366004612cf1565b6001600160a01b03918216600090815260066020908152604080832093909416825291909152205460ff1690565b3480156107d657600080fd5b5061035b6107e5366004612bc9565b61183a565b3480156107f657600080fd5b5061035b610805366004612be4565b611886565b34801561081657600080fd5b5061035b610825366004612bc9565b6118c3565b61035b610838366004612d1b565b61195e565b6000601254421015801561085f575060115460125461085c9190612d9d565b42105b905090565b60006001600160e01b031982166380ac58cd60e01b148061089557506001600160e01b03198216635b5e139f60e01b145b806108b057506001600160e01b0319821663780e9d6360e01b145b806108cb57506301ffc9a760e01b6001600160e01b03198316145b92915050565b6060600180546108e090612db5565b80601f016020809104026020016040519081016040528092919081815260200182805461090c90612db5565b80156109595780601f1061092e57610100808354040283529160200191610959565b820191906000526020600020905b81548152906001019060200180831161093c57829003601f168201915b5050505050905090565b600061096e82611bf6565b61098b576040516333d1c03960e21b815260040160405180910390fd5b506000908152600560205260409020546001600160a01b031690565b60006109b282611301565b9050806001600160a01b0316836001600160a01b031614156109e75760405163250fdee360e21b815260040160405180910390fd5b336001600160a01b03821614801590610a075750610a05813361079c565b155b15610a25576040516367d9dca160e11b815260040160405180910390fd5b610a30838383611c2a565b505050565b6000546001600160801b03600160801b8204811691811691909103600019011690565b610a30838383611c86565b333214610a8b5760405162461bcd60e51b8152600401610a8290612df0565b60405180910390fd5b600754600160a01b900460ff1615610ab55760405162461bcd60e51b8152600401610a8290612e20565b601354421015610b075760405162461bcd60e51b815260206004820152601d60248201527f42656174426f74733a205075626c69632053616c6520436c6f736564210000006044820152606401610a82565b600d54610b149082612e4a565b341015610b335760405162461bcd60e51b8152600401610a8290612e69565b600c5481610b3f610a35565b610b499190612d9d565b1115610bad5760405162461bcd60e51b815260206004820152602d60248201527f42656174426f74733a204d617820537570706c7920666f72205075626c69632060448201526c4d696e7420526561636865642160981b6064820152608401610a82565b600e5433600090815260166020526040902054610bcb908390612d9d565b1115610c3f5760405162461bcd60e51b815260206004820152603e60248201527f42656174426f74733a2057616c6c65742068617320616c7265616479206d696e60448201527f746564204d617820416d6f756e7420666f72205075626c69632053616c6500006064820152608401610a82565b3360009081526016602052604081208054839290610c5e908490612d9d565b90915550610c6e90503382611ea3565b60405181815233907f748a2986091c2034d6e93b6f44f771a79f0e1d6acd8a60c68c17d4e1e2feaed29060200160405180910390a250565b6000610cb1836113a8565b8210610cd0576040516306ed618760e11b815260040160405180910390fd5b600080546001600160801b03169080805b83811015610d9c57600081815260036020908152604091829020825160608101845290546001600160a01b0381168252600160a01b81046001600160401b031692820192909252600160e01b90910460ff161580159282019290925290610d485750610d94565b80516001600160a01b031615610d5d57805192505b876001600160a01b0316836001600160a01b03161415610d925786841415610d8b575093506108cb92505050565b6001909301925b505b600101610ce1565b50600080fd5b333214610dc15760405162461bcd60e51b8152600401610a8290612df0565b600754600160a01b900460ff1615610deb5760405162461bcd60e51b8152600401610a8290612e20565b610df6338383611ebd565b610e425760405162461bcd60e51b815260206004820152601c60248201527f42656174426f74733a20496e76616c6964205369676e617475726521000000006044820152606401610a82565b610e4a61083d565b610e965760405162461bcd60e51b815260206004820152601e60248201527f42656174426f74733a20507269766174652053616c6520436c6f7365642100006044820152606401610a82565b600d54341015610eb85760405162461bcd60e51b8152600401610a8290612e69565b600c54610ec3610a35565b610ece906001612d9d565b1115610f1c5760405162461bcd60e51b815260206004820152601e60248201527f42656174426f74733a204d617820537570706c792065786365656465642100006044820152606401610a82565b600f5433600090815260166020526040902054610f3a906001612d9d565b1115610fb0576040805162461bcd60e51b81526020600482015260248101919091527f42656174426f74733a2057616c6c65742068617320616c7265616479206d696e60448201527f746564204d617820416d6f756e7420666f7220707269766174652073616c65216064820152608401610a82565b336000908152601660205260408120805460019290610fd0908490612d9d565b90915550610fe19050336001611ea3565b6040516001815233907f73c70fae6461815259bb17577a08362a747e97f1b952b86e211522d4a24f95379060200160405180910390a25050565b6007546001600160a01b031633146110455760405162461bcd60e51b8152600401610a8290612ea0565b601355565b3332146110695760405162461bcd60e51b8152600401610a8290612df0565b6007546001600160a01b031633146110935760405162461bcd60e51b8152600401610a8290612ea0565b600c548161109f610a35565b6110a99190612d9d565b111561110b5760405162461bcd60e51b815260206004820152602b60248201527f42656174626f74733a20746f74616c206d696e7420616d6f756e74206578636560448201526a6564656420737570706c7960a81b6064820152608401610a82565b6111153382611ea3565b6040518181527f6dc41da7efc7f0e4ff3cc76df99542e60d74c16e8ec252c7bffb4e83a5dbafce906020015b60405180910390a150565b6007546001600160a01b031633146111765760405162461bcd60e51b8152600401610a8290612ea0565b61117e611f11565b565b610a30838383604051806020016040528060008152506116b2565b6007546001600160a01b031633146111c55760405162461bcd60e51b8152600401610a8290612ea0565b601155565b600080546001600160801b031681805b8281101561125a57600081815260036020908152604091829020825160608101845290546001600160a01b0381168252600160a01b81046001600160401b031692820192909252600160e01b90910460ff16151591810182905290611251578583141561124a5750949350505050565b6001909201915b506001016111da565b506040516329c8c00760e21b815260040160405180910390fd5b6007546001600160a01b0316331461129e5760405162461bcd60e51b8152600401610a8290612ea0565b80516112b19060089060208401906128e2565b5050565b6007546001600160a01b031633146112df5760405162461bcd60e51b8152600401610a8290612ea0565b601580546001600160a01b0319166001600160a01b0392909216919091179055565b600061130c82611fae565b5192915050565b6007546001600160a01b0316331461133d5760405162461bcd60e51b8152600401610a8290612ea0565b610d058111156113a35760405162461bcd60e51b815260206004820152602b60248201527f42656174626f74733a204f6e6c7920616c6c6f77656420746f2072656475636560448201526a206d617820737570706c7960a81b6064820152608401610a82565b600c55565b60006001600160a01b0382166113d1576040516323d3ad8160e21b815260040160405180910390fd5b506001600160a01b03166000908152600460205260409020546001600160401b031690565b6007546001600160a01b031633146114205760405162461bcd60e51b8152600401610a8290612ea0565b61117e60006120d0565b6007546001600160a01b031633146114545760405162461bcd60e51b8152600401610a8290612ea0565b600b546040516000916001600160a01b03169047908381818185875af1925050503d80600081146114a1576040519150601f19603f3d011682016040523d82523d6000602084013e6114a6565b606091505b50509050806114f75760405162461bcd60e51b815260206004820152601b60248201527f42656174626f74733a205769746864726177616c206661696c656400000000006044820152606401610a82565b6040514781527f94effa14ea3a1ef396fa2fd829336d1597f1d76b548c26bfa2332869706638af90602001611141565b6007546001600160a01b031633146115515760405162461bcd60e51b8152600401610a8290612ea0565b61117e612122565b6007546001600160a01b031633146115835760405162461bcd60e51b8152600401610a8290612ea0565b6009805460ff19168215151790556040514281527f15120e52505e619cbf6c2af910d5cf7f9ee1befa55801b078c33e93880b2d60990602001611141565b6060600280546108e090612db5565b6007546001600160a01b031633146115fa5760405162461bcd60e51b8152600401610a8290612ea0565b601480546001600160a01b0319166001600160a01b0392909216919091179055565b6001600160a01b0382163314156116465760405163b06307db60e01b815260040160405180910390fd5b3360008181526006602090815260408083206001600160a01b03871680855290835292819020805460ff191686151590811790915590519081529192917f17307eab39ab6107e8899845ad3d59bd9653f200f220920489ca2b5937696c31910160405180910390a35050565b6116bd848484611c86565b6116c984848484612187565b6116e6576040516368d2bf6b60e11b815260040160405180910390fd5b50505050565b60606116f782611bf6565b61171457604051630a14c4b560e41b815260040160405180910390fd5b60095460ff166117b057600a805461172b90612db5565b80601f016020809104026020016040519081016040528092919081815260200182805461175790612db5565b80156117a45780601f10611779576101008083540402835291602001916117a4565b820191906000526020600020905b81548152906001019060200180831161178757829003601f168201915b50505050509050919050565b600880546117bd90612db5565b151590506117da57604051806020016040528060008152506108cb565b60086117e583612287565b6040516020016117f6929190612ef1565b60405160208183030381529060405292915050565b6007546001600160a01b031633146118355760405162461bcd60e51b8152600401610a8290612ea0565b601255565b6007546001600160a01b031633146118645760405162461bcd60e51b8152600401610a8290612ea0565b600b80546001600160a01b0319166001600160a01b0392909216919091179055565b6007546001600160a01b031633146118b05760405162461bcd60e51b8152600401610a8290612ea0565b80516112b190600a9060208401906128e2565b6007546001600160a01b031633146118ed5760405162461bcd60e51b8152600401610a8290612ea0565b6001600160a01b0381166119525760405162461bcd60e51b815260206004820152602660248201527f4f776e61626c653a206e6577206f776e657220697320746865207a65726f206160448201526564647265737360d01b6064820152608401610a82565b61195b816120d0565b50565b33321461197d5760405162461bcd60e51b8152600401610a8290612df0565b600754600160a01b900460ff16156119a75760405162461bcd60e51b8152600401610a8290612e20565b6119b2338383612384565b6119fe5760405162461bcd60e51b815260206004820152601c60248201527f42656174426f74733a20496e76616c6964205369676e617475726521000000006044820152606401610a82565b611a0661083d565b611a525760405162461bcd60e51b815260206004820152601e60248201527f42656174426f74733a20507269766174652053616c6520436c6f7365642100006044820152606401610a82565b600d54611a5f9084612e4a565b341015611a7e5760405162461bcd60e51b8152600401610a8290612e69565b600c5483611a8a610a35565b611a949190612d9d565b1115611af95760405162461bcd60e51b815260206004820152602e60248201527f42656174426f74733a204d617820537570706c7920666f72205072697661746560448201526d2053616c6520526561636865642160901b6064820152608401610a82565b60105433600090815260166020526040902054611b17908590612d9d565b1115611b8d576040805162461bcd60e51b81526020600482015260248101919091527f42656174426f74733a2057616c6c65742068617320616c7265616479206d696e60448201527f746564204d617820416d6f756e7420666f7220507269766174652053616c65216064820152608401610a82565b3360009081526016602052604081208054859290611bac908490612d9d565b90915550611bbc90503384611ea3565b60405183815233907f73c70fae6461815259bb17577a08362a747e97f1b952b86e211522d4a24f95379060200160405180910390a2505050565b600080546001600160801b0316821080156108cb575050600090815260036020526040902054600160e01b900460ff161590565b60008281526005602052604080822080546001600160a01b0319166001600160a01b0387811691821790925591518593918516917f8c5be1e5ebec7d5bd14f71427d1e84f3dd0314c0f7b2291e5b200ac8c7c3b92591a4505050565b6000611c9182611fae565b80519091506000906001600160a01b0316336001600160a01b03161480611cbf57508151611cbf903361079c565b80611cda575033611ccf84610963565b6001600160a01b0316145b905080611cfa57604051632ce44b5f60e11b815260040160405180910390fd5b846001600160a01b031682600001516001600160a01b031614611d2f5760405162a1148160e81b815260040160405180910390fd5b6001600160a01b038416611d5657604051633a954ecd60e21b815260040160405180910390fd5b611d666000848460000151611c2a565b6001600160a01b038581166000908152600460209081526040808320805467ffffffffffffffff198082166001600160401b0392831660001901831617909255898616808652838620805493841693831660019081018416949094179055898652600390945282852080546001600160e01b031916909417600160a01b429092169190910217909255908601808352912054909116611e59576000546001600160801b0316811015611e5957825160008281526003602090815260409091208054918601516001600160401b0316600160a01b026001600160e01b03199092166001600160a01b03909316929092171790555b5082846001600160a01b0316866001600160a01b03167fddf252ad1be2c89b69c2b068fc378daa952ba7f163c4a11628f55a4df523b3ef60405160405180910390a45b5050505050565b6112b18282604051806020016040528060008152506123d8565b6000808484604051602001611ed3929190612fac565b60408051601f1981840301815291905280516020909101209050611ef781846123e5565b6014546001600160a01b0391821691161495945050505050565b600754600160a01b900460ff16611f615760405162461bcd60e51b815260206004820152601460248201527314185d5cd8589b194e881b9bdd081c185d5cd95960621b6044820152606401610a82565b6007805460ff60a01b191690557f5db9ee0a495bf2e6ff9c91a7834c1ba4fdd244a5e8aa4e537bd38aeae4b073aa335b6040516001600160a01b03909116815260200160405180910390a1565b60408051606081018252600080825260208201819052918101829052905482906001600160801b03168110156120b757600081815260036020908152604091829020825160608101845290546001600160a01b0381168252600160a01b81046001600160401b031692820192909252600160e01b90910460ff161515918101829052906120b55780516001600160a01b03161561204c579392505050565b5060001901600081815260036020908152604091829020825160608101845290546001600160a01b038116808352600160a01b82046001600160401b031693830193909352600160e01b900460ff16151592810192909252156120b0579392505050565b61204c565b505b604051636f96cda160e11b815260040160405180910390fd5b600780546001600160a01b038381166001600160a01b0319831681179093556040519116919082907f8be0079c531659141344cd1fd0a4f28419497f9722a3daafe3b4186f6b6457e090600090a35050565b600754600160a01b900460ff161561214c5760405162461bcd60e51b8152600401610a8290612e20565b6007805460ff60a01b1916600160a01b1790557f62e78cea01bee320cd4e420270b5ea74000d11b0c9f74754ebdbfc544b05a258611f913390565b60006001600160a01b0384163b1561227b57604051630a85bd0160e11b81526001600160a01b0385169063150b7a02906121cb903390899088908890600401612fe4565b6020604051808303816000875af1925050508015612206575060408051601f3d908101601f1916820190925261220391810190613021565b60015b612261573d808015612234576040519150601f19603f3d011682016040523d82523d6000602084013e612239565b606091505b508051612259576040516368d2bf6b60e11b815260040160405180910390fd5b805181602001fd5b6001600160e01b031916630a85bd0160e11b14905061227f565b5060015b949350505050565b6060816122ab5750506040805180820190915260018152600360fc1b602082015290565b8160005b81156122d557806122bf8161303e565b91506122ce9050600a8361306f565b91506122af565b6000816001600160401b038111156122ef576122ef612abb565b6040519080825280601f01601f191660200182016040528015612319576020820181803683370190505b5090505b841561227f5761232e600183613083565b915061233b600a8661309a565b612346906030612d9d565b60f81b81838151811061235b5761235b6130ae565b60200101906001600160f81b031916908160001a90535061237d600a8661306f565b945061231d565b600080848460405160200161239a929190612fac565b60408051601f19818403018152919052805160209091012090506123be81846123e5565b6015546001600160a01b0391821691161495945050505050565b610a308383836001612409565b60008060006123f48585612591565b9150915061240181612601565b509392505050565b6000546001600160801b03166001600160a01b03851661243b57604051622e076360e81b815260040160405180910390fd5b836124595760405163b562e8dd60e01b815260040160405180910390fd5b6001600160a01b038516600081815260046020908152604080832080546001600160801b031981166001600160401b038083168c0181169182176801000000000000000067ffffffffffffffff1990941690921783900481168c018116909202179091558584526003909252822080546001600160e01b031916909317600160a01b42909216919091021790915581905b8581101561256b5760405182906001600160a01b038916906000907fddf252ad1be2c89b69c2b068fc378daa952ba7f163c4a11628f55a4df523b3ef908290a4838015612541575061253f6000888488612187565b155b1561255f576040516368d2bf6b60e11b815260040160405180910390fd5b600191820191016124ea565b50600080546001600160801b0319166001600160801b0392909216919091179055611e9c565b6000808251604114156125c85760208301516040840151606085015160001a6125bc878285856127bc565b945094505050506125fa565b8251604014156125f257602083015160408401516125e78683836128a9565b9350935050506125fa565b506000905060025b9250929050565b6000816004811115612615576126156130c4565b141561261e5750565b6001816004811115612632576126326130c4565b14156126805760405162461bcd60e51b815260206004820152601860248201527f45434453413a20696e76616c6964207369676e617475726500000000000000006044820152606401610a82565b6002816004811115612694576126946130c4565b14156126e25760405162461bcd60e51b815260206004820152601f60248201527f45434453413a20696e76616c6964207369676e6174757265206c656e677468006044820152606401610a82565b60038160048111156126f6576126f66130c4565b141561274f5760405162461bcd60e51b815260206004820152602260248201527f45434453413a20696e76616c6964207369676e6174757265202773272076616c604482015261756560f01b6064820152608401610a82565b6004816004811115612763576127636130c4565b141561195b5760405162461bcd60e51b815260206004820152602260248201527f45434453413a20696e76616c6964207369676e6174757265202776272076616c604482015261756560f01b6064820152608401610a82565b6000807f7fffffffffffffffffffffffffffffff5d576e7357a4501ddfe92f46681b20a08311156127f357506000905060036128a0565b8460ff16601b1415801561280b57508460ff16601c14155b1561281c57506000905060046128a0565b6040805160008082526020820180845289905260ff881692820192909252606081018690526080810185905260019060a0016020604051602081039080840390855afa158015612870573d6000803e3d6000fd5b5050604051601f1901519150506001600160a01b038116612899576000600192509250506128a0565b9150600090505b94509492505050565b6000806001600160ff1b038316816128c660ff86901c601b612d9d565b90506128d4878288856127bc565b935093505050935093915050565b8280546128ee90612db5565b90600052602060002090601f0160209004810192826129105760008555612956565b82601f1061292957805160ff1916838001178555612956565b82800160010185558215612956579182015b8281111561295657825182559160200191906001019061293b565b50612962929150612966565b5090565b5b808211156129625760008155600101612967565b6001600160e01b03198116811461195b57600080fd5b6000602082840312156129a357600080fd5b81356129ae8161297b565b9392505050565b60005b838110156129d05781810151838201526020016129b8565b838111156116e65750506000910152565b600081518084526129f98160208601602086016129b5565b601f01601f19169290920160200192915050565b6020815260006129ae60208301846129e1565b600060208284031215612a3257600080fd5b5035919050565b80356001600160a01b0381168114612a5057600080fd5b919050565b60008060408385031215612a6857600080fd5b612a7183612a39565b946020939093013593505050565b600080600060608486031215612a9457600080fd5b612a9d84612a39565b9250612aab60208501612a39565b9150604084013590509250925092565b634e487b7160e01b600052604160045260246000fd5b60006001600160401b0380841115612aeb57612aeb612abb565b604051601f8501601f19908116603f01168101908282118183101715612b1357612b13612abb565b81604052809350858152868686011115612b2c57600080fd5b858560208301376000602087830101525050509392505050565b600082601f830112612b5757600080fd5b6129ae83833560208501612ad1565b60008060408385031215612b7957600080fd5b82356001600160401b0380821115612b9057600080fd5b612b9c86838701612b46565b93506020850135915080821115612bb257600080fd5b50612bbf85828601612b46565b9150509250929050565b600060208284031215612bdb57600080fd5b6129ae82612a39565b600060208284031215612bf657600080fd5b81356001600160401b03811115612c0c57600080fd5b8201601f81018413612c1d57600080fd5b61227f84823560208401612ad1565b80358015158114612a5057600080fd5b600060208284031215612c4e57600080fd5b6129ae82612c2c565b60008060408385031215612c6a57600080fd5b612c7383612a39565b9150612c8160208401612c2c565b90509250929050565b60008060008060808587031215612ca057600080fd5b612ca985612a39565b9350612cb760208601612a39565b92506040850135915060608501356001600160401b03811115612cd957600080fd5b612ce587828801612b46565b91505092959194509250565b60008060408385031215612d0457600080fd5b612d0d83612a39565b9150612c8160208401612a39565b600080600060608486031215612d3057600080fd5b8335925060208401356001600160401b0380821115612d4e57600080fd5b612d5a87838801612b46565b93506040860135915080821115612d7057600080fd5b50612d7d86828701612b46565b9150509250925092565b634e487b7160e01b600052601160045260246000fd5b60008219821115612db057612db0612d87565b500190565b600181811c90821680612dc957607f821691505b60208210811415612dea57634e487b7160e01b600052602260045260246000fd5b50919050565b60208082526016908201527542656174426f74733a206d7573742075736520454f4160501b604082015260600190565b60208082526010908201526f14185d5cd8589b194e881c185d5cd95960821b604082015260600190565b6000816000190483118215151615612e6457612e64612d87565b500290565b6020808252601b908201527f42656174426f74733a20496e73756666696369656e7420455448210000000000604082015260600190565b6020808252818101527f4f776e61626c653a2063616c6c6572206973206e6f7420746865206f776e6572604082015260600190565b60008151612ee78185602086016129b5565b9290920192915050565b600080845481600182811c915080831680612f0d57607f831692505b6020808410821415612f2d57634e487b7160e01b86526022600452602486fd5b818015612f415760018114612f5257612f7f565b60ff19861689528489019650612f7f565b60008b81526020902060005b86811015612f775781548b820152908501908301612f5e565b505084890196505b505050505050612fa3612f928286612ed5565b64173539b7b760d91b815260050190565b95945050505050565b6bffffffffffffffffffffffff198360601b16815260008251612fd68160148501602087016129b5565b919091016014019392505050565b6001600160a01b0385811682528416602082015260408101839052608060608201819052600090613017908301846129e1565b9695505050505050565b60006020828403121561303357600080fd5b81516129ae8161297b565b600060001982141561305257613052612d87565b5060010190565b634e487b7160e01b600052601260045260246000fd5b60008261307e5761307e613059565b500490565b60008282101561309557613095612d87565b500390565b6000826130a9576130a9613059565b500690565b634e487b7160e01b600052603260045260246000fd5b634e487b7160e01b600052602160045260246000fdfea2646970667358221220480106229e8470a5ef1ac96f97cfa336859855a6293639322ed97404de22730564736f6c634300080b00334f776e61626c653a2063616c6c6572206973206e6f7420746865206f776e6572",
  "linkReferences": {},
  "deployedLinkReferences": {}
}